:100000000C9452040C9421220C94FA210C947A043E
:100010000C947A040C947A040C947A040C947A0468
:100020000C947A040C947A040C947A040C947A0458
:100030000C947A040C947A040C947A040C947A0448
:100040000C94B0210C947A040C947A040C947A04E5
:100050000C947A040C947A040C947A040C947A0428
:100060000C9448220C947A040C947A040C947A042C
:100070000C947A040C947A040C947A040C947A0408
:100080000C947A040C947A040C947A040C947A04F8
:100090000C947A040C947A040C947A040C947A04E8
:1000A0000C947A040C947A040C947A040C947A04D8
:1000B0000C947A0408000000BE922449123EABAAB8
:1000C000AA2ABECDCCCC4C3E00000080BEABAAAA72
:1000D000AA3E00000000BF000000803F00000000BA
:1000E00000084178D3BB4387D1133D190E3CC3BDF3
:1000F0004282AD2B3E68EC8276BED98FE1A93E4CA0
:1001000080EFFFBE01C4FF7F3F0000000000342EDF
:1001100000332E00322E00312E004D41494E204D2D
:10012000454E55006D41680054696D6500410043BE
:100130007572200041005261746520004C6F61644B
:100140003A00560056004375746F6666200042619F
:1001500074746572793A002020204D454E55000098
:10016000000000003E5B4F5B3E3E6B4F6B3E1C3E13
:100170007C3E1C183C7E3C181C577D571C1C5E7F27
:100180005E1C00183C1800FFE7C3E7FF00182418A6
:1001900000FFE7DBE7FF30483A060E2629792926DB
:1001A000407F050507407F05253F5A3CE73C5A7FC5
:1001B0003E1C1C08081C1C3E7F14227F22145F5F1B
:1001C000005F5F06097F017F006689956A60606055
:1001D000606094A2FFA29408047E040810207E2090
:1001E0001008082A1C08081C2A08081E10101010E5
:1001F0000C1E0C1E0C30383E3830060E3E0E06002B
:100200000000000000005F00000007000700147FEE
:10021000147F14242A7F2A12231308646236495655
:1002200020500008070300001C2241000041221C4E
:10023000002A1C7F1C2A08083E0808008070300035
:100240000808080808000060600020100804023E4A
:100250005149453E00427F4000724949494621418B
:10026000494D331814127F1027454545393C4A49FA
:100270004931412111090736494949364649492939
:100280001E00001400000040340000000814224149
:100290001414141414004122140802015909063ED2
:1002A000415D594E7C1211127C7F494949363E41CD
:1002B0004141227F4141413E7F494949417F0909EE
:1002C00009013E414151737F0808087F00417F4189
:1002D000002040413F017F081422417F40404040C0
:1002E0007F021C027F7F0408107F3E4141413E7F18
:1002F000090909063E4151215E7F0919294626490F
:1003000049493203017F01033F4040403F1F2040E5
:10031000201F3F4038403F631408146303047804EF
:10032000036159494D43007F4141410204081020B7
:10033000004141417F04020102044040404040002E
:100340000307080020545478407F28444438384438
:10035000444428384444287F385454541800087EB4
:10036000090218A4A49C787F0804047800447D4006
:10037000002040403D007F1028440000417F4000A5
:100380007C047804787C080404783844444438FCBD
:100390001824241818242418FC7C08040408485441
:1003A00054542404043F44243C4040207C1C2040FE
:1003B000201C3C4030403C44281028444C909090F5
:1003C0007C4464544C44000836410000007700002F
:1003D000004136080002010204023C2623263C1E8E
:1003E000A1A161123A4040207A3854545559215500
:1003F000557941225454784221555478402054551F
:1004000079400C1E5272123955555559395454546D
:100410005939555454580000457C410002457D42ED
:100420000001457C407D1211127DF0282528F07CCA
:10043000545545002054547C547C0A097F49324964
:100440004949323A4444443A324A4848303A4141B0
:10045000217A3A42402078009DA0A07D3D42424250
:100460003D3D4040403D3C24FF2424487E494366B6
:100470002B2FFC2F2BFF0929F620C0887E09032093
:10048000545479410000447D413048484A32384054
:1004900040227A007A0A0A727D0D19317D262929B7
:1004A0002F28262929292630484D402038080808B9
:1004B0000808080808382F10C8ACBA2F102834FADA
:1004C00000007B000008142A142222142A14085564
:1004D00000550055AA55AA55AAFF55FF55FF000023
:1004E00000FF00101010FF00141414FF001010FF84
:1004F00000FF1010F010F0141414FC001414F70096
:10050000FF0000FF00FF1414F404FC141417101F64
:1005100010101F101F1414141F00101010F00000F2
:1005200000001F101010101F10101010F01000000D
:1005300000FF101010101010101010FF100000001D
:10054000FF140000FF00FF00001F10170000FC0454
:10055000F414141710171414F404F40000FF00F737
:1005600014141414141414F700F71414141714109A
:10057000101F101F141414F4141010F010F00000C9
:100580001F101F0000001F14000000FC140000F0EA
:1005900010F01010FF10FF141414FF141010101F8F
:1005A00000000000F010FFFFFFFFFFF0F0F0F0F0A0
:1005B000FFFFFF0000000000FFFF0F0F0F0F0F38BD
:1005C00044443844FC4A4A4A347E02020606027E0B
:1005D000027E0263554941633844443C04407E2016
:1005E0001E2006027E020299A5E7A5991C2A492A27
:1005F0001C4C7201724C304A4D4D303048784830B6
:10060000BC625A463D3E494949007E0101017E2AAD
:100610002A2A2A2A44445F444440514A44404044E0
:100620004A51400000FF0103E080FF000008086B12
:100630006B083612362436060F090F06000018180C
:100640000000001010003040FF0101001F01011EDA
:1006500000191D1712003C3C3C3C0000000000EF5C
:1006600003038002CF0300C130ED0464031281E86C
:1006700003850078CB05392C003402F70120EA020B
:100680000000C00123C10110C5023E28C701863603
:1006900001483701003A0155B1020018B60308823B
:1006A00027F20100260101E00F0F312B0C0E084E3E
:1006B000F1370710030E0900E10F000E14031107B4
:1006C00031C148080F0C31360F11802980002020DD
:1006D00054494D4500444953434841524745002041
:1006E0002052415445004449534348415247450034
:1006F000564F4C54414745004241545445525900CD
:10070000564F4C54414745004355544F4646004CC4
:1007100069706F203153004C69706F203253004E66
:100720006F7420436F6E6E656374656400460043AA
:100730000054656D706572617475726500460043A2
:100740000054656D70657261747572650042617404
:1007500074200032303041205620556E646572207E
:100760004C6F6164003230304120562044726F700B
:10077000004952205620556E646572204C6F6164AA
:1007800000495220562044726F70003230304120B0
:100790006D004952206D00544F54414C0043656C2C
:1007A0006C320043656C6C3100382E3430007300BD
:1007B00052756E54696D65004D696E757465730090
:1007C000332E39562020205365636F6E64730033D7
:1007D0002E39355620205365636F6E647300342EB6
:1007E00030562020205365636F6E647300372E38B7
:1007F000562020205365636F6E647300372E395680
:100800002020205365636F6E647300382E305620AD
:1008100020205365636F6E6473004D696C6573745B
:100820006F6E657300564F4C544147452056532E0A
:100830002054494D450000000000240027002A00F4
:100840002D000A0D0E090003020000040508000037
:100850000000000000000000000000000001020491
:100860000810204080010204081020010204081032
:1008700020408040010204080000000025002800FC
:100880002B002E00040404040404040402020202E7
:100890000202030303030303020203050505050027
:1008A0007423373911241FBECFEFD8E0DEBFCDBF90
:1008B00012E0A0E0B1E0E2EAFBE702C005900D9291
:1008C000A439B107D9F726E0A4E9B2E001C01D922E
:1008D000AC3FB207E1F714E0C1E5D4E004C02197D2
:1008E000FE010E94623CC035D107C9F70E940A256B
:1008F0000C94C43D0C940000880F8093BA000895B6
:100900009B01AC0160E074E284EF90E00E94403C07
:100910002051310941095109569547953795279539
:100920002093B8000895882321F085EC8093BC00C3
:10093000089585E8FBCF85ED8093BC008091BC00D5
:1009400084FDFCCF1092FB02089585EC8093BC00DF
:100950001092FB020895811101C081E08093C906C5
:100960008093CA0608958F929F92AF92BF92CF92C2
:10097000DF92EF92FF92E0916506F0916606C080EB
:10098000D180E280F380C0926D06D0926E06E09234
:100990006F06F0927006E0916306F0916406808124
:1009A0009181A281B3818093710690937206A09386
:1009B0007306B093740680907D0690907E06A0909A
:1009C0007F06B0908006A5019401C701B6010E9480
:1009D000303B18164CF480926D0690926E06A092F1
:1009E0006F06B092700610C08090790690907A06DB
:1009F000A0907B06B0907C06A5019401C701B601CA
:100A00000E94D13987FDE7CFFF90EF90DF90CF9024
:100A1000BF90AF909F908F900895282F30E0F901FC
:100A2000EE5BF74F9491F901E35AF74F84912C57FD
:100A3000374FF9012491222309F42EC09923D9F0CC
:100A400092509D30C0F4E92FF0E0E75DFA4F0C942E
:100A5000623C6F05730536054D053B053B055105A9
:100A600057055B0561053B0565056B0590918000A9
:100A70009F7790938000E22FF0E0EE0FFF1FE85881
:100A8000F74FA591B4919FB7F894EC9161112EC0E6
:100A900080958E238C939FBF0895909180009F7DB9
:100AA000E8CF9091B0009F779093B000E4CF909101
:100AB000B0009F7DF9CF909190009F779093900028
:100AC000DACF909190009F7DF9CF9091A0009F7711
:100AD0009093A000D0CF9091A0009F7DF9CF94B5C6
:100AE0009F7794BDC8CF94B59F7DFBCF8E2BD2CF7F
:100AF0001092FB0281E08093FD021092FC0261E003
:100B000082E10E940D0561E083E10E940D05E9EBA1
:100B1000F0E080818E7F808380818D7F808388E478
:100B20008093B80085E48093BC000895ECEBF0E07E
:100B300080818A7B808360E082E10E940D0560E015
:100B400083E10C940D05CF93DF9390E0FC01E35A11
:100B5000F74F24918C57974FFC0184918823D1F053
:100B600090E0880F991FFC01EA5CF74FA591B491C2
:100B7000FC01E858F74FC591D49161110EC09FB7A1
:100B8000F8948C91E22FE0958E238C932881E223B8
:100B9000E8839FBFDF91CF9108958FB7F894EC91D0
:100BA000E22BEC938FBFF6CFCF93DF93EC0161E0A4
:100BB00083E00E94A305209731F460E083E0DF9199
:100BC000CF910C940D05CF3FD10511F461E0F6CF24
:100BD000E5E4F8E0E491E250ED3008F071C0F0E0B7
:100BE000EC50FA4F0C94623C010608060D061706FD
:100BF000600660062106290631063B0660064606A9
:100C0000550684B5806884BDC7BDDF91CF91089536
:100C100084B5806284BDC8BDF8CF809180008068B3
:100C200080938000D0938900C0938800EECF80919C
:100C30008000806280938000D0938B00C0938A00F4
:100C4000E4CF8091B00080688093B000C093B3007F
:100C5000DCCF8091B00080628093B000C093B4007C
:100C6000D4CF80919000806880939000D0939900B9
:100C7000C0939800CACF5A9A809190008062809366
:100C80009000D0939B00C0939A00BFCF8091A000AA
:100C900080688093A0008091A0008F7B8093A0004B
:100CA000D093A900C093A800B0CF5A9A8091A00019
:100CB00080628093A000D093AB00C093AA00A5CF20
:100CC000C038D1050CF082CF78CF883038F092EF61
:100CD000980F9B30D8F08931D8F0835120912A01A8
:100CE00090E4299F900111248770822B80937C00CF
:100CF00080917A00806480937A0080917A0086FDEA
:100D0000FCCF80917800909179000895892FE6CFEB
:100D10008FEFE4CF3FB7F8948091040690910506D9
:100D2000A0910606B091070626B5A89B05C02F3FE7
:100D300019F00196A11DB11D3FBFBA2FA92F982F01
:100D40008827BC01CD01620F711D811D911D42E0FC
:100D5000660F771F881F991F4A95D1F708958F92C4
:100D60009F92AF92BF92CF92DF92EF92FF924B0190
:100D70005C010E948A066B017C010E948A066C1944
:100D80007D098E099F09683E734081059105A8F38E
:100D900021E0821A9108A108B10888EEC80E83E00C
:100DA000D81EE11CF11C81149104A104B10429F79F
:100DB000FF90EF90DF90CF90BF90AF909F908F907B
:100DC00008952FB7F8946091000670910106809104
:100DD0000206909103062FBF08953F924F925F92B3
:100DE0006F927F928F929F92AF92BF92CF92DF923B
:100DF000EF92FF920F931F93CF93DF93CDB7DEB7A0
:100E00002E970FB6F894DEBF0FBECDBF0E94E1064D
:100E10006D837E838F8398878091690690916A069F
:100E2000A0916B06B0916C064D815E816F817885D3
:100E3000481B590B6A0B7B0B8091750690917606C7
:100E4000A0917706B0917806481759076A077B0783
:100E500008F43CC1E0916306F091640680819181C1
:100E6000A281B38189839A83AB83BC83E0916706B7
:100E7000F09168069C01AD0160817181828193814E
:100E80000E9464394B015C01209171063091720619
:100E9000409173065091740669817A818B819C819F
:100EA0000E9464396B017C012091570630915806ED
:100EB0004091590650915A06C501B4010E94853BE4
:100EC00020916D0630916E0640916F06509170062C
:100ED0000E9465392B013C0140926D0650926E06CE
:100EE00060926F06709270063090820631101AC0C0
:100EF0002091530630915406409155065091560664
:100F0000C701B6010E94853B9B01AC01C301B20140
:100F10000E94643960936D0670936E0680936F062D
:100F20009093700640906D0650906E0660906F062C
:100F30007090700610917D0690917E069E87A0911C
:100F40007F06AD8700918006212F392F4A2F502F21
:100F5000C301B2010E94303B18160CF09AC0812FD9
:100F60009E85AD85B02F80936D0690936E06A093FD
:100F70006F06B0937006332009F4A4C02091530685
:100F8000309154064091550650915606C501B40162
:100F90000E94853B4B015C0120915B0630915C0611
:100FA00040915D0650915E06C701B6010E94853BE7
:100FB0009B01AC0160916D0670916E0680916F0689
:100FC000909170060E946439A50194010E946539D0
:100FD0006B017C019B01AC01612F7E858D85902F7B
:100FE0000E94D13987FD18C01091790690917A0638
:100FF0009E87A0917B06AD8700917C06212F392F1B
:101000004A2F502FB601C7010E94D13987FD04C075
:101010001C2DDE86ED860F2DE0916506F0916606AB
:10102000812F9E85AD85B02F80839183A283B3836A
:1010300089819A81AB81BC818093710690937206FD
:10104000A0937306B09374068D819E81AF81B8859D
:101050008093690690936A06A0936B06B0936C0622
:1010600081E02E960FB6F894DEBF0FBECDBFDF91A4
:10107000CF911F910F91FF90EF90DF90CF90BF9095
:10108000AF909F908F907F906F905F904F903F9028
:1010900008958091790690917A06A0917B06B0918F
:1010A0007C0689879A87AB87BC879C01AD01C30109
:1010B000B2010E94D13987FF5ECF89859A85AB85C1
:1010C000BC8551CF812C912C540166CF80E0C9CFD3
:1010D000E0910303F091040381E080830895089573
:1010E000AF92BF92CF92DF92EF92FF920F931F9336
:1010F000CF93DF936C017B018B01040F151FEB0174
:101100005E01AE18BF08C017D10759F06991D6012A
:10111000ED91FC910190F081E02DC6010995892B9C
:1011200079F7C501DF91CF911F910F91FF90EF905B
:10113000DF90CF90BF90AF900895FC01E61BF70BB6
:10114000681779071CF0FB01E81BF90B9C01241BB5
:10115000350B481759071CF09A01281B390BDA0187
:10116000A61BB70B641775071CF0DB01A41BB50B9E
:101170002E173F075CF0AE17BF072CF0860F971FA6
:10118000959587950895E217F3072CF0840F951F26
:10119000A217B307ACF7640F751FCB01F1CF0CB4E6
:1011A00005FC0DC09EBD00000DB407FEFDCF9EB531
:1011B0008EBD00000DB407FEFDCF8EB508958EBD27
:1011C00000000DB407FEFDCF8EB59EBD00000DB42E
:1011D00007FEFDCF9EB508952091D702260F332735
:1011E000331F21323105ECF42091FB02FC0190E029
:1011F00080E0243069F082E00895A091D702219127
:10120000AC0149545D4FA40FB52FB11D2C9301962D
:10121000861798F38091D702680F6093D70280E019
:10122000089581E008950F93413208F044C09091F1
:10123000FB029111FCCF92E09093FB020093FD0220
:101240009FEF9093FA027093FF026093FE02109258
:101250000103409300031092020390910203880F50
:10126000892B809302038091FC02813011F510924A
:10127000FC02809102038093BB008091BC0083FD3F
:10128000F8CF85EC8093BC00222321F08091FB02F3
:101290008230D1F38091FA028F3F79F08091FA0287
:1012A000803269F08091FA02803359F084E00F9126
:1012B000089585EEE7CF81E0FACF80E0F8CF82E0B5
:1012C000F6CF83E0F4CF4132E0F59091FB0291112B
:1012D000FCCF91E09093FB022093FD022FEF20932F
:1012E000FA027093FF026093FE0210920103240F32
:1012F000209300039093020390910203880F892B9F
:10130000809302038091FC028130C9F41092FC02A8
:10131000809102038093BB008091BC0083FDF8CFD5
:1013200085EC8093BC008091FB028130E1F38091D9
:101330000103841710F440910103842F089585EE72
:10134000F0CF40E0FACFE0912606F09127063097E3
:1013500029F0109223061092240609940895DC01C6
:101360008091280690912906892B19F190911E06EB
:1013700080911F069817E8F090E0292F30E026179B
:1013800037076CF4FD01E20FF31F4081E0911C066A
:10139000F0911D06E20FF31F40839F5FEECF109286
:1013A0001E0660931F06E0912806F0912906CB01E6
:1013B000099408950895DC015096EC915097519648
:1013C0008C915197E81748F41E968D919C91E80FE7
:1013D000F92FF11D808190E008958FEF9FEF089520
:1013E000FC01908981892FEF3FEF981740F4A68583
:1013F000B785A90FB11D2C9130E09F5F908BC9017B
:101400000895FC0181899089891B990B0895CF92D9
:10141000DF92EF92FF920F931F93CF93DF938C0194
:10142000CB017A01D80157962C915797222389F046
:10143000EB016B01C40ED51ECC15DD0579F0699169
:10144000D801ED91FC910190F081E02DC801099542
:10145000F3CF9896ED91FC91642F0995C701DF9128
:10146000CF911F910F91FF90EF90DF90CF90089553
:10147000CF93DF931F92CDB7DEB7FC0169838789D5
:101480008823F9F02689848595852817190654F054
:1014900081E090E09383828390E080E00F90DF9181
:1014A000CF9108958981A58923893489A20FB32F0B
:1014B000B11D8C9385898F5F858B868B81E090E051
:1014C000EDCF00A4F1A5E02D61E0CE0101960995D4
:1014D000F5CFFC01A5A1B6A18C9192A589238C938F
:1014E000A5A1B6A18C9191A5892B8C9308950F93FA
:1014F0001F93CF93DF93EC018B018DA981110DC058
:101500001EBD0DB407FEFDCF0EBD0DB407FEFDCF11
:10151000DF91CF911F910F9108958130E9F480E11F
:10152000E9A1FAA1908117FF14C02DA1922B9083FD
:10153000EBA1FCA190812FA1922B9083EBA1FCA1A8
:10154000908128A592239083000F111F815041F7AD
:10155000DFCF2EA19223EBCFEF8DF8A11083CE0128
:101560000E94690AEF8DF8A10083CE01DF91CF912F
:101570001F910F910C94690AFC0185A9811105C086
:101580006EBD0DB407FEFDCF08958130E1F488E013
:10159000A1A1B2A19C9167FF13C025A1922B9C939E
:1015A000A3A1B4A19C9127A1922B9C93660FA3A108
:1015B000B4A19C9120A592239C93815049F7089552
:1015C00026A19223ECCFA78DB0A16C93CF010C94F0
:1015D000690ACF93DF93EC01ED8DFE8D80819CA98C
:1015E00089238083CE010E94BC0AED8DFE8D80810F
:1015F0009BA9892B8083DF91CF910895AF92BF92F1
:10160000CF92DF92EF92FF920F931F93CF93DF93CE
:10161000EC015B016A01215031097901E60EF71EE8
:1016200001501109040F151F8091060190910701C7
:101630008617970739F480910401909105018E1562
:101640009F05A1F06AE2CE010E94E90AB501CE0130
:101650000E94770AB701CE010E94770AB092070173
:10166000A0920601F0920501E0920401809102012E
:10167000909103018C159D0539F4809100019091A2
:10168000010180179107A1F06BE2CE010E94E90AE7
:10169000B601CE010E94770AB801CE010E94770AF6
:1016A000D0920301C0920201109301010093000146
:1016B0006CE2CE01DF91CF911F910F91FF90EF90DF
:1016C000DF90CF90BF90AF900C94E90A1F93CF9317
:1016D000DF93EC01162FE881F9810284F385E02D78
:1016E0000995112371F06DADCE010E94E90AE881E0
:1016F000F9810688F789E02DCE01DF91CF911F9106
:1017000009946EADF1CFAF92BF92CF92DF92EF927C
:10171000FF920F931F93CF93DF93EC0177FD38C0B7
:1017200088859985681779079CF557FD31C08A85AA
:101730009B854817590764F569017A015B01E881C7
:10174000F9810284F385E02DCE010995E881F981C4
:1017500002A4F3A5E02D01E010E021E030E0A701B4
:10176000B501CE010995B601CE010E94770AE88144
:10177000F9810688F789E02DCE01DF91CF911F9185
:101780000F91FF90EF90DF90CF90BF90AF900994B2
:10179000DF91CF911F910F91FF90EF90DF90CF904D
:1017A000BF90AF9008958F929F92AF92BF92CF92C9
:1017B000DF92EF92FF920F931F93CF93DF93EC0191
:1017C00049015701E881F98102A4F3A5E02D0995AB
:1017D0009401D8010E94683C6B017C01C114D104C2
:1017E000E104F10409F490C08DA9811115C081E0D4
:1017F000C81AD108E108F1088FEFC816D806E80624
:10180000F80609F481C0BEBC0DB407FEFDCFAEBC26
:101810000DB407FEFDCFEBCF813009F045C081E06C
:10182000C81AD108E108F1088FEFC816D806E806F3
:10183000F80609F469C09B2D88E0E9A1FAA120818E
:1018400097FF2CC03DA1232B2083EBA1FCA120817D
:101850003FA1232B2083EBA1FCA1208138A52323CA
:101860002083990F815049F79A2D88E0E9A1FAA1C8
:10187000208197FF16C03DA1232B2083EBA1FCA163
:1018800020813FA1232B2083EBA1FCA1208138A53F
:1018900023232083990F815049F7C1CF3EA12323F1
:1018A000D3CF3EA12323E9CFBA1016C0CC0CDD1C48
:1018B000EE1CFF1CEF8DF8A1B08281E0C81AD108A0
:1018C000E108F1088FEFC816D806E806F806E1F03F
:1018D000CE010E94690AF1CF81E0C81AD108E1085F
:1018E000F1088FEFC816D806E806F80669F0EF8D04
:1018F000F8A1B082CE010E94690AEF8DF8A1A08202
:10190000CE010E94690AE8CFDF91CF911F910F911C
:10191000FF90EF90DF90CF90BF90AF909F908F900F
:1019200008958F929F92AF92BF92CF92DF92EF92E3
:10193000FF920F931F93CF93DF934C01EB016A014A
:10194000590137FF07C0C9010196C80FD91FB194CB
:10195000A194B108F401A085B185CA17DB070CF08A
:1019600058C017FF07C0C8010196C80ED91E1195AF
:1019700001951109F40182859385C816D9060CF0EA
:1019800048C0FE01EA0DFB1DAF014150510957FD52
:1019900040C0B601600F711F9B012150310937FD16
:1019A00038C0D7FF03C05F01D0E0C0E0D7FE03C05E
:1019B0008B01D12CC12C4A175B071CF05D01AC1ABE
:1019C000BD0A281739071CF08C010C191D09D40118
:1019D000ED91FC910284F385E02DC40109959501F8
:1019E000A601BE01C4010E94D30BD401ED91FC916C
:1019F0000688F789E02DC401DF91CF911F910F91E7
:101A0000FF90EF90DF90CF90BF90AF909F908F901E
:101A10000994DF91CF911F910F91FF90EF90DF908C
:101A2000CF90BF90AF909F908F900895EF92FF92CC
:101A30000F931F932115310529F00115110511F0A0
:101A40000E94910C1F910F91FF90EF9008958F923B
:101A50009F92AF92BF92CF92DF92EF92FF920F933D
:101A60001F93CF93DF935C014B016A01E90177FD7E
:101A700052C0DC0118968D919C91681779070CF083
:101A80004AC0209709F447C037FF07C0C901019633
:101A9000C80ED91ED195C195D109F50182859385CE
:101AA000C816D906C4F5A6014C0F5D1F9A01215036
:101AB000310937FD30C0D7FE03C0EA01D12CC12C5B
:101AC000281739071CF0EC01CC19DD09D501ED917F
:101AD000FC910284F385E02DC501099578018E0102
:101AE00021E030E0A601B401C5010E94D30BD5016D
:101AF000ED91FC910688F789E02DC501DF91CF912A
:101B00001F910F91FF90EF90DF90CF90BF90AF901B
:101B10009F908F900994DF91CF911F910F91FF902B
:101B2000EF90DF90CF90BF90AF909F908F900895EF
:101B30008F929F92AF92BF92CF92DF92EF92FF92DD
:101B40000F931F93CF93DF935C016B014A01E9016F
:101B500057FD52C0DC011A968D919C914817590788
:101B60000CF04AC0209709F447C037FF07C0C901ED
:101B70000196C80ED91ED195C195D109F501808570
:101B80009185C816D906C4F5A6014C0F5D1F9A01B0
:101B90002150310937FD30C0D7FE03C0EA01D12CF6
:101BA000C12C281739071CF0EC01CC19DD09D5012F
:101BB000ED91FC910284F385E02DC5010995780132
:101BC00001E010E09E01A401B601C5010E94D30B03
:101BD000D501ED91FC910688F789E02DC501DF91D3
:101BE000CF911F910F91FF90EF90DF90CF90BF901A
:101BF000AF909F908F900994DF91CF911F910F919B
:101C0000FF90EF90DF90CF90BF90AF909F908F901C
:101C10000895EF92FF920F931F93CF93DF9377FD79
:101C200032C0DC011896ED91FC916E177F075CF5D0
:101C30002115310541F137FF07C0F90131964E0FEB
:101C40005F1F319521953109DC011A96ED91FC91C8
:101C50004E175F07C4F4EA01C20FD31FDE011197CC
:101C6000B7FD11C057FF03C09E0150E040E0AE1722
:101C7000BF071CF09F01241B350B7801890121E06F
:101C800030E00E94D30BDF91CF911F910F91FF9015
:101C9000EF900895EF92FF920F931F93CF93DF93EE
:101CA00057FD31C0DC011A96ED91FC914E175F078C
:101CB00054F52115310539F137FF07C0F901319687
:101CC0006E0F7F1F319521953109DC011896ED913A
:101CD000FC916E177F07BCF4EB01C20FD31FDE012E
:101CE0001197B7FD10C077FF03C09E0170E060E060
:101CF000AE17BF071CF09F01261B370B780101E0D0
:101D000010E00E94D30BDF91CF911F910F91FF90B4
:101D1000EF9008958F929F92AF92BF92CF92DF92F1
:101D2000EF92FF920F931F93CF93DF9347012115FB
:101D3000310509F44BC00115110509F447C037FFFF
:101D400007C0F90131966E0F7F1F3195219531093A
:101D5000DC011896AD90BC906A157B05BCF517FFA9
:101D600007C0F80131964E0F5F1F119501951109BB
:101D7000DC011A96ED91FC914E175F073CF56B0163
:101D8000C20ED31EE6012197D7FD20C07A01E00ED6
:101D9000F11ED7011197B7FD19C077FF03C0960157
:101DA00070E060E057FF03C0870150E040E0CA15D3
:101DB000DB051CF09501261B370BAE17BF071CF087
:101DC0008F01041B150B74010E94D30BDF91CF917F
:101DD0001F910F91FF90EF90DF90CF90BF90AF9049
:101DE0009F908F900895EF92FF920F931F93CF9340
:101DF000DF93EC0177FD22C0888599856817790704
:101E0000ECF457FD1BC08A859B8548175907B4F42D
:101E10007901E881F98102A4F3A5E02D01E010E049
:101E200021E030E0CE010995B701CE01DF91CF91DD
:101E30001F910F91FF90EF900C94770ADF91CF9153
:101E40001F910F91FF90EF9008950895FC0187A9CD
:101E500087FD06C0A38DB48D9C9181A9892B8C939D
:101E600008958CBD9DBD08952F923F924F925F9231
:101E70006F927F928F929F92AF92BF92CF92DF929A
:101E8000EF92FF920F931F93CF93DF9380912B01DB
:101E9000882309F4A8C00E94E1062B013C0180912F
:101EA000350190913601A0913701B0913801A3011D
:101EB0009201281B390B4A0B5B0BDA01C90103970E
:101EC000A105B10508F48FC08091390190913A01C4
:101ED000892B09F488C081E591E00E94310F60E010
:101EE00080912C010E940D0581EB8EBD00000DB488
:101EF00007FEFDCF8EB581EC90E00E94CF08EC018B
:101F000063E0D695C7956A95E1F7C150D04F81E956
:101F100090E00E94CF0873E0969587957A95E1F757
:101F2000C81BD90BC03931E0D3070CF448C081E994
:101F300090E00E94CF0881ED90E00E94CF086C01F4
:101F400023E0D694C7942A95E1F781E990E00E94B6
:101F5000CF087C0133E0F694E7943A95E1F781ED00
:101F600090E00E94CF085C0143E0B694A7944A95A4
:101F7000E1F781E990E00E94CF084C0153E096948C
:101F800087945A95E1F780ED90E00E94CF088C018C
:101F900090E080E00E94CF081C0161E080912C015C
:101FA0000E940D05D7FF14C0109234011092330126
:101FB00080912D018F3FB9F010922B0114C0912C0C
:101FC000812CB12CA12CF12CE12CD12CC12CDBCFFC
:101FD000C03941E0D407D4F4109234011092330197
:101FE000CB34D1052CF3DF91CF911F910F91FF904E
:101FF000EF90DF90CF90BF90AF909F908F907F90A9
:102000006F905F904F903F902F900895D093340140
:10201000C0933301A80183E0569547958A95E1F76F
:10202000B501C6010E949D08EC01A10193E05695FF
:1020300047959A95E1F7B401C7010E949D08409227
:10204000350150923601609237017092380120912B
:102050002E01213001F190F0223031F12FEF3FE0DD
:10206000A9014C1B5D0B5093300140932F01281B9D
:10207000390B3093320120933101B5CF2FEF3FE080
:10208000281B390B3093300120932F01D09332015C
:10209000C0933101A8CFD0933001C0932F0190930A
:1020A0003201809331019FCF9093300180932F01B3
:1020B0008FEF9FE08C1B9D0BF2CFFC0125A9211116
:1020C00004C081A192A10C94310F08950F931F9326
:1020D000CF93DF931F92CDB7DEB78C016370DC0125
:1020E00056966C935697623009F468C0633009F4D1
:1020F0006AC0613009F456C088E4898380EF90E0BB
:1021000019969C938E93189780E491E01B969C936C
:102110008E931A97C8010E945D10D801D7968C91B2
:10212000D79787FD09C05B96ED91FC915C97808104
:10213000D2969C9189238083D8015D96ED91FC9184
:102140005E978081D4969C918923808366E3C80141
:102150000E94BC0AD8015D96ED91FC915E9780814A
:10216000D3969C91D397892B8083D5968C9182307E
:1021700061F16981C8010E94BC0AD801D7968C918F
:10218000D79787FD09C05B96ED91FC915C978081A4
:10219000D1969C91892B80830F90DF91CF911F91D5
:1021A0000F91089588E2898380E491E0F801918796
:1021B000808780EF90E093878287ACCF88E889831F
:1021C00080EF90E09DCF88EEEECFF80180A98823C4
:1021D00081F269817A81C8010E94770ACECFAF92DD
:1021E000BF92CF92DF92EF92FF920F931F93CF9304
:1021F000DF93EC01E62E8A01A22E0E945D108FA9CA
:1022000087FD06C0EB8DFC8D80819AA98923808390
:10221000ED8DFE8D80819CA9892380836E2DCE015A
:102220000E94BC0AED8DFE8D80819BA9892B808345
:10223000D12CC12CB12CCA14DB04E4F48DA9780193
:10224000823079F488A9882361F0F8016191719155
:102250007F01CE010E94770AFFEFCF1ADF0A8701C4
:10226000EACFFFEFEF1AFF0AF8016491CE010E9456
:10227000BC0AF2CF8FA987FD06C0EB8DFC8D808153
:1022800099A9892B8083DF91CF911F910F91FF90A6
:10229000EF90DF90CF90BF90AF900895611106C08E
:1022A00060E220E050E040E00C94EF1061E2F9CFF2
:1022B000CF93DF93EC010E945D108FA987FD06C0CC
:1022C000EB8DFC8D80819AA989238083DF91CF914A
:1022D00008950895FC016370668B84819581268141
:1022E0003781613039F0633029F0918780873387F7
:1022F00022870895318720879387828708952F92B8
:102300003F924F925F926F927F928F929F92AF9285
:10231000BF92CF92DF92EF92FF920F931F93CF93D2
:10232000DF93CDB7DEB76A970FB6F894DEBF0FBE66
:10233000CDBF9A8F898F7A8369834A01D22E1887FD
:102340000F833701BC2CDC0159962D913C915A9793
:102350002115310509F015C118968D919C91199799
:10236000681779070CF0D7C11A968D919C91481780
:1023700059070CF0D0C14C2C512CB6E0CB9E600D0F
:10238000711D11247C876B87161617060CF0C3C1CC
:10239000EA2DF0E0FA87E98793E0EE0FFF1F9A95A8
:1023A000E1F7F88BEF87CF01840F951F18161906F8
:1023B0000CF0B1C1A98DBA8D58968C91811104C0D1
:1023C000BFEABD1508F4D394A98DBA8DED91FC91A7
:1023D00011970284F385E02DCD010995B5E0DB9ED0
:1023E000C0011124E981FA81FC83EB83312C212C7B
:1023F0009C01215A3E4F388F2F8B4A2D50E05E8B27
:102400004D8BEF89F88DE20DF31D44919E828D82F4
:10241000D12CC12C69817A81620D731D7A8B698BF5
:10242000842F90E09C8B8B8BE98DFA8DA081B181FC
:1024300040FF82C0F1E0BF126FC0AF126DC01C96AA
:10244000ED91FC912F813885A4014C0D5D1D6989AA
:102450007A89898D9A8D0995EB89FC89F595E7959F
:102460004E2F5FEFC51AD50A6D817E818D899E89B9
:10247000680F791F7E836D8398E0C916D10481F6B9
:10248000AFEF2A1A3A0AEB81FC81E40DF51DFC83BB
:10249000EB83F5E02F16310409F0B3CF2F81388597
:1024A00026153705B9F0A98DBA8DED91FC91B1E0F3
:1024B000BB1257C0AB1255C069817A816B5F7F4FE9
:1024C0000088F189E02D830128E030E0A401898DA6
:1024D0009A8D0995A98DBA8DED91FC911197068879
:1024E000F789E02DCD016A960FB6F894DEBF0FBED6
:1024F000CDBFDF91CF911F910F91FF90EF90DF90B3
:10250000CF90BF90AF909F908F907F906F905F9093
:102510004F903F902F9009941E96ED91FC91EF8083
:10252000F88409851A8592014D815E816B817C81D9
:10253000898D9A8D099590CF2F813885261537057D
:1025400009F48ACF31E0B31207C0A31205C01C966C
:10255000ED91FC91930178CF1E96ED91FC91730162
:10256000E0CF6B857C85641975090684F785E02DBD
:1025700073010F8518899201A401898D9A8D09959F
:10258000A9CFF90134969491329745915491D91A73
:10259000B7E0DB9E400D511D1124F90125913491C6
:1025A0003C8B2B8BFA0125903490FA013296749073
:1025B00031963491398B329664903196449041E053
:1025C0004C1518F04A1508F07FC0662D062C000C3B
:1025D000770B7C836B83842D042C000C990B9E83DA
:1025E0008D83A98DBA8DED91FC9111970284F385AD
:1025F000E02DCD010995512CD12CC12CEA2DF0E014
:10260000FA87E9872B2D30E03C872B87A401440D06
:10261000511D47FC5A95588F4F8B69817A81660D01
:10262000711D67FC7A957E876D877989C71608F0DA
:1026300051CF2C2D30E04D815E81420F531FA98573
:10264000BA854A9FC0014B9F900D5A9F900D11244F
:10265000FC01E80DF91DF88BEF87852D612C4F8962
:10266000588D420F531F5E8B4D8B671408F050C07E
:1026700044244394480E877041F4C1010196EB89CC
:10268000FC89E20DF31DD4901C01D7FE19C0A98D61
:10269000BA8DED91FC91662D70E0B1E0BB1219C0CE
:1026A000AB1217C02D853E85620F731F0484F5851C
:1026B000E02D2F8138854D895E89898D9A8D099508
:1026C000DD0C6394842DD1CF1E821D821C821B825F
:1026D00088CF4B815C81640F751FAB85BC856A9F79
:1026E000C0016B9F900D7A9F900D112469817A81B2
:1026F000680F791F0684F785E02DEF80F88409853F
:102700001A859D014F855889898D9A8D0995D8CF55
:10271000570CC3948ACF6A960FB6F894DEBF0FBEEB
:10272000CDBFDF91CF911F910F91FF90EF90DF9080
:10273000CF90BF90AF909F908F907F906F905F9061
:102740004F903F902F9008958F929F92AF92CF928B
:10275000EF92FF920F931F93CF93DF93EC01262FFD
:10276000898D9A8D009709F051C06A30D1F41D8689
:102770001C868D8948E0849F900111248E859F8559
:10278000820F931F9F878E8781E090E0DF91CF912A
:102790001F910F91FF90EF90CF90AF909F908F90EF
:1027A00008956D3089F3CC88AD888F898823C1F076
:1027B0008C859D8536E0C39E800D911D1124488532
:1027C00059854817590764F44E855F851D861C8618
:1027D00038E0A39EC0011124840F951F9F878E8728
:1027E000EA88FB88088919894E855F856C857D8517
:1027F000CE010E947F112C898C859D8546E0249F07
:10280000800D911D11249D878C87BECF6A3069F49D
:102810001D861C86FC013896E4912D898E859F8546
:10282000E29F800D911D1124ADCF6D3009F4ACCF26
:10283000FC0134963491631708F4A6CF3296E491E4
:10284000E61708F4A1CFFC01329685909490462FAC
:10285000431B342F47E0349F800C911C1124F4015A
:10286000329634913196E4913323A9F1EE2399F114
:10287000CC88F4013596E491AD884F89442301F169
:102880000E2E000CFF0BE30FF11DCE9EA001CF9E7C
:10289000500D11246C857D85460F571F68857985FD
:1028A000641775076CF44E855F851D861C86FC01D8
:1028B0003896E491AE9E400D511D11245F874E87DE
:1028C000EA88FB88088919894E855F856C857D8536
:1028D000CE010E947F11F4013496E4912C898C85FD
:1028E0009D85E29F800D911D11248DCF6F927F9267
:1028F0008F929F92AF92BF92CF92DF92EF92FF9210
:102900000F931F93CF93DF93EC016B015A013901B1
:102910004801E881F9810284F385E02D0995E88179
:10292000F9810288F389E02D87019301A501B601A1
:10293000CE010995A501480D591D41505109E88165
:10294000F9810288F389E02D9301B601CE01099542
:10295000E881F9810088F189E02D9401A501B60193
:10296000CE010995C60CD71CB60161507109E881EA
:10297000F9810088F189E02D9401A501CE01099526
:10298000E881F9810688F789E02DCE01DF91CF91AA
:102990001F910F91FF90EF90DF90CF90BF90AF907D
:1029A0009F908F907F906F9009946F927F928F92FB
:1029B0009F92AF92BF92CF92DF92EF92FF920F93CE
:1029C0001F93CF93DF935C01EB016A01490138014A
:1029D0008701DC01ED91FC916217730719F564160C
:1029E00075062CF0962D872D3A01C92ED82E96010A
:1029F000261937092F5F3F4F048CF58DE02DA30179
:102A0000BE01C5010995DF91CF911F910F91FF90F4
:102A1000EF90DF90CF90BF90AF909F908F907F907E
:102A20006F9008954615570591F42617370724F03F
:102A3000892D4B01C22FD82F9E01281939092F5FEC
:102A40003F4F068CF78DE02DA601B401DACF02844A
:102A5000F385E02D0995D501ED91FC910488F58968
:102A6000E02D83019401A601BE01C5010995D501A0
:102A7000ED91FC910688F789E02DC501DF91CF919A
:102A80001F910F91FF90EF90DF90CF90BF90AF908C
:102A90009F908F907F906F900994EF92FF920F9389
:102AA0001F93DC011A960D911C911B9718962D917E
:102AB0003C911997ED91FC9100A0F1A1E02D7B01D3
:102AC00050E040E070E060E009951F910F91FF90A9
:102AD000EF9008954F925F926F927F928F929F92A4
:102AE000AF92BF92CF92DF92EF92FF920F931F931C
:102AF000CF93DF936C012B015A0139014801DC01AE
:102B0000ED91FC910284F385E02D0995E201640CBE
:102B1000751CD601ED91FC91C615D7055CF40088B3
:102B2000F189E02D87019401A501BE01C601099537
:102B30002196EFCF0688F789E02DC601DF91CF916E
:102B40001F910F91FF90EF90DF90CF90BF90AF90CB
:102B50009F908F907F906F905F904F9009948F928D
:102B60009F92AF92BF92CF92DF92EF92FF920F931C
:102B70001F93CF93DF93EC015B014A016901E88168
:102B8000F9810284F385E02D099595012C0D3D1DF9
:102B900021503109E881F9810488F589E02D780117
:102BA0008401A401B501CE010995E881F981068867
:102BB000F789E02DCE01DF91CF911F910F91FF900A
:102BC000EF90DF90CF90BF90AF909F908F9009943F
:102BD0008F929F92AF92BF92CF92DF92EF92FF922D
:102BE0000F931F93CF93DF93EC015B014A016901BF
:102BF0007801E881F9810284F385E02D0995C80CFC
:102C0000D91C860101501109E881F9810488F589F0
:102C1000E02D9501A401B501CE010995E881F98166
:102C20000688F789E02DCE01DF91CF911F910F919A
:102C3000FF90EF90DF90CF90BF90AF909F908F90DC
:102C40000994EF92FF920F931F93DC01ED91FC9199
:102C500000A0F1A1E02D09951F910F91FF90EF9039
:102C600008950F931F93DC01ED91FC91068CF78D75
:102C7000E02D09951F910F9108950F931F93DC018B
:102C8000ED91FC91048CF58DE02D09951F910F912C
:102C90000895DC01ED91FC910084F185E02D09940B
:102CA0002F923F924F925F926F927F928F929F925C
:102CB000AF92BF92CF92DF92EF92FF920F931F934A
:102CC000CF93DF9300D000D000D0CDB7DEB73C016A
:102CD0006A013E832D83FC82EB825801A41AB50A57
:102CE000B7FE03C0B194A194B1088D809E80861A6E
:102CF000970A97FE03C09194819491088A149B04CB
:102D00005CF0902F812F0D811E819D838E839C2DE1
:102D10008D2D6B01692F782F0C151D055CF09D81A1
:102D20008E817E836D83692F782F902F812F86016E
:102D3000C92ED82E1601201A310A2B012D813E8171
:102D4000421A530A57FE03C051944194510871012D
:102D500037FE03C03FEFE31AF30AF594E7948D8141
:102D60009E81861797075CF5A1E0B0E0BA83A9833E
:102D7000C016D1064CF1D301ED91FC910484F58588
:102D8000E02D2B813C81A8016D817E818A149B04FA
:102D90001CF04D815E81B801C3010995E418F50866
:102DA000F7FE0AC02D813E8189819A81280F391F43
:102DB0003E832D83E20CF31C0F5F1F4FD9CF2FEF03
:102DC0003FEF3A832983D4CF26960FB6F894DEBF1F
:102DD0000FBECDBFDF91CF911F910F91FF90EF906C
:102DE000DF90CF90BF90AF909F908F907F906F902B
:102DF0005F904F903F902F900895089590E080E06D
:102E00000895CF93CFB7F8948091B602811127C06F
:102E1000EEE8F8E08491E7E6F8E09491E82FF0E03E
:102E2000EE0FFF1FEA5CF74FA591B491EC91E923F7
:102E300021F461E08AE00E940D0561E08AE00E94D1
:102E4000A3058CB580618CBD8CB580648CBD61E0C0
:102E50008DE00E94A30561E08BE00E94A3058091B4
:102E6000B6028F5F8093B602CFBFCF910895609175
:102E7000B2027091B3028091B4029091B5029B01AD
:102E8000AC010E9465392091AE023091AF024091B1
:102E9000B0025091B1020E94853B20E030E040E852
:102EA00059E30E94853B6093AA027093AB02809322
:102EB000AC029093AD020895EF92FF920F931F938F
:102EC000CF93DF937C018B01842FE9010E94AB0437
:102ED000F092C206E092C106D093C406C093C30626
:102EE000E801FE016491662339F085EB96E00E94CB
:102EF000A4132196892BA9F7DF91CF911F910F91F0
:102F0000FF90EF900895BF92CF92DF92EF92FF92E1
:102F10000F931F93CF93DF93EC01B88C8B2D0E94FE
:102F2000650600EF10E0C12CD12C76018B2D0E949C
:102F30006506092E000CAA0BBB0BC80ED91EEA1E93
:102F4000FB1E0150110991F7C701B60122E09695C9
:102F50008795779567952A95D1F70E947E3A20E06C
:102F600030E040E751E40E94D639288139814A8116
:102F70005B810E9465396B017C01C886D986EA862F
:102F8000FB8620E030E040E859E36091B2027091A6
:102F9000B3028091B4029091B5020E94853BA701D3
:102FA00096010E94853B9B01AC012C873D874E8793
:102FB0005F876C817D818E819F810E94853B688BBC
:102FC000798B8A8B9B8BDF91CF911F910F91FF9013
:102FD000EF90DF90CF90BF900895FC01A081B18168
:102FE0004A175B079CF083818A0F9B2F911D8417E2
:102FF000950764F0228130E0621773073CF084810A
:10300000280F311D81E0261737070CF480E0089562
:103010008F929F92AF92BF92CF92DF92EF92FF92E8
:10302000CF937B01BC01990F880B990B0E94803ACA
:103030002CEE31E548EB5DEB0E94853B20911001C1
:103040003091110140911201509113010E94653994
:103050004B015C0120E030E0A9010E94303B20E000
:1030600030E040E05FE387FD5EC0C501B4010E942F
:1030700065390E94483AC62FB72EB701FF0C880B5E
:10308000990B0E94803A2FE832EC45E75DEB0E94F5
:10309000853B20910C0130910D0140910E01509122
:1030A0000F010E9465396B017C0120E030E0A9012D
:1030B0000E94303B20E030E040E05FE387FD38C015
:1030C000C701B6010E9465390E94483A562F472F22
:1030D0002C2F3B2D37FF02C030E020E08091BD0651
:1030E0009091BE06281739071CF09C012150310928
:1030F000E52FF42FF7FF02C0F0E0E0E04091BF06BB
:103100005091C006E417F50714F0FA013197B901A0
:10311000CF01CF91FF90EF90DF90CF90BF90AF9015
:103120009F908F900895C501B4010E946439A1CF8A
:10313000C701B6010E946439C7CFCF93C09108067A
:1031400080E290E00E944E39C81729F06C2F80E28F
:1031500090E00E945639C091090681E290E00E94F9
:103160004E39C81729F06C2F81E290E00E94563941
:1031700088E096E0CF9108959F92AF92BF92CF9250
:10318000DF92EF92FF920F931F93CF93DF935C0137
:103190007B018B01D0E0C0E0F80191908F016501C7
:1031A000CC0EDD1EC6010E944E39981621F0692D05
:1031B000C6010E9456392196C430D10569F7C7016E
:1031C000DF91CF911F910F91FF90EF90DF90CF9003
:1031D000BF90AF909F900895FC0101900020E9F707
:1031E0003197AF01481B590BBC0185EB96E00C945D
:1031F00070088F929F92AF92BF920F931F93CF93BD
:10320000DF93CDB7DEB7A1970FB6F894DEBF0FBE40
:10321000CDBF19A2423008F44AE08E010F5D1F4F66
:10322000842E912CB12CA12CA50194010E94403C2C
:10323000E62FB901CA01EA30F4F4E05DD801EE935B
:103240008D01232B242B252B79F790E080E010971C
:1032500019F0CD010E94EC18A1960FB6F894DEBFCC
:103260000FBECDBFDF91CF911F910F91BF90AF9057
:103270009F908F900895E95CE1CFCF92DF92EF921B
:10328000FF92CF93DF93EC016B017A0181E00E9402
:10329000AB04D093C206C093C106F092C406E0927C
:1032A000C3060D2C000CEE08FF084AE0C701B6016A
:1032B000F7FE0DC06DE285EB96E00E94A413662731
:1032C0007727CB016C197D098E099F094AE0DF91B0
:1032D000CF91FF90EF90DF90CF900C94F91800976A
:1032E00011F00C94EC1890E080E00895EF92FF92BA
:1032F0000F931F93CF93DF93EC01ED80FE800C8141
:1033000010E02B8130E04A8150E06881798185EBC3
:1033100096E00E94160D8A8190E0059605EB16E076
:10332000288139812B5F3F4FF801358724879787A4
:10333000868789850E94AB048F819885F801938BDD
:10334000828B918B808B8A859B85DF91CF911F919A
:103350000F91FF90EF900C946F190F931F93CF93E1
:10336000DF93E2E1F5E080EA90E095A384A384EBAB
:1033700086A3DCE8D7A38DE280A787E891E097A732
:1033800086A780E098EF92A781A70FEF1FEF14A701
:1033900003A7C2E0C5A786E395E00E9476192DEC4D
:1033A00030E042E050E067E571E080EA90E00E94A2
:1033B0005C171092C7051092C60588EC8093C8056B
:1033C000D093C90589E18093CA0582E991E0909381
:1033D000D1058093D00580EE97E09093CC05809343
:1033E000CB051093CE050093CD05C093CF0586EC99
:1033F00095E0DF91CF911F910F910C947619CF92A8
:10340000DF92EF92FF920F931F93CF93DF93C2E16E
:10341000D5E019AA18AA88ECC82ECAAA9CE8D92E09
:10342000DBAA0EE10CAB8AE991E09BAF8AAF8FE19A
:1034300090E09EAB8DABEE24EA94FE2CF8AEEFAAA2
:1034400012E019AF82E495E00E94761980EA90E0DC
:103450009093970580939605C0929805D092990510
:1034600000939A0585EA91E09093A1058093A005C9
:1034700080E098EF90939C0580939B05F0929E05C9
:10348000E0929D0510939F0586E995E00E947619CC
:103490001DAE1CAE86E98EAFDFAE0093520580EB09
:1034A00091E0909359058093580580EE9FEF90939B
:1034B00054058093530510925605109255051093AC
:1034C00057058EE495E00E947619E5EBF6E0F18A67
:1034D000E08A138A128A148B158B30E020E043E0D7
:1034E00050E06EE471E090E080E00E945C172EE115
:1034F00030E042E050E066E471E090E080E00E945D
:103500005C172EE130E042E050E064E471E087E8CF
:1035100090E00E945C1722E330E042E050E062E479
:1035200071E087E890E00E945C1730E020E043E023
:1035300050E06CE371E080EA90E00E945C172EE1BD
:1035400030E042E050E066E371E080EA90E00E9403
:103550005C172EE130E042E050E064E371E08EE081
:1035600091E00E945C1722E330E042E050E06FE21D
:1035700071E080EA90E00E945C1722E330E042E0D4
:1035800050E06DE271E08EE091E00E945C1720E572
:1035900030E041E050E068E271E080EA90E00E94B3
:1035A0005C1720E530E041E050E064E271E080EF3C
:1035B00090E0DF91CF911F910F91FF90EF90DF90FE
:1035C000CF900C945C179F92AF92BF92CF92DF92F4
:1035D000EF92FF920F931F93CF93DF9370E060E021
:1035E00085EB96E00E944D15E5EBF6E08FEF97E056
:1035F000938B828B918B808B30E020E044E050E015
:103600006AE171E082E390E00E945C1722E330E01F
:1036100043E050E067E171E090E080E00E945C17D9
:1036200024E630E043E050E064E171E090E080E0C7
:103630000E945C1726E930E043E050E061E171E070
:1036400090E080E00E945C1728EC30E043E050E01E
:103650006EE071E090E080E00E945C17C2E1D5E08E
:1036600082E3A82EB12CB982A88282E38A8318EC67
:103670001B8399E1992E9C828BEB91E09B878A8733
:1036800020EEC22E27E0D22EDE82CD82EE24EA94F6
:10369000FE2CF886EF8202E00987CE010E9476199F
:1036A000BD86AC8684E68E871F87988A87EC91E07A
:1036B0009F8B8E8BDA8AC98AFC8AEB8A0D8B8EE10E
:1036C00095E00E947619B98EA88E86E98A8F1B8FA5
:1036D0009C8E86ED91E09BA38AA3DE8ECD8EF8A210
:1036E000EF8E09A38AE295E00E947619BDA2ACA2F2
:1036F0001EA31FA398A684EE91E09FA78EA7DAA62B
:10370000C9A6FCA6EBA60DA786E395E0DF91CF91B5
:103710001F910F91FF90EF90DF90CF90BF90AF90EF
:103720009F900C947619EF92FF920F931F93CF9373
:10373000DF937C01EB01842F89010E94AB04E5EB50
:10374000F6E0F586E48617870687CE01DF91CF91F4
:103750001F910F91FF90EF900C946F194F925F9211
:103760006F927F928F929F92AF92BF92CF92DF9291
:10377000EF92FF920F931F93CF936B017C01742EF6
:10378000AC019B010E94F23B882399F08FEE91E0FF
:10379000CF911F910F91FF90EF90DF90CF90BF904E
:1037A000AF909F908F907F906F905F904F900C9410
:1037B000EC1846015701E894B7F82FEF3FEF4FE7B9
:1037C0005FE7C501B4010E94F23B81110DC02FEFEC
:1037D0003FEF4FE75FE7C501B4010E94D1391816EA
:1037E0001CF483EF91E0D4CF2FEF3FEF4FE75FE47E
:1037F000C701B6010E94303B18161CF487EF91E018
:10380000C7CF2FEF3FEF4FE75FECC701B6010E9434
:10381000D13987FDF3CF20E030E0A901C701B6011F
:103820000E94D13910E000E087FF0AC06DE285EB0D
:1038300096E00E94A4138C01F7FAF094F7F8F09444
:10384000C0E060E070E080E09FE37C1641F020E0A3
:1038500030E040E251E40E94D639CF5FF6CFA701B5
:1038600096010E9465392B013C010E944F3A4B01A1
:103870005C014AE00E94F9187C01E00EF11ECC23A5
:10388000C1F1C501B4010E947E3A9B01AC01C301A4
:10389000B2010E9464394B015C016EE285EB96E057
:1038A0000E94A413E80EF91EC15018F120E030E088
:1038B00040E251E4C501B4010E94853B2B013C016B
:1038C0000E944F3A4B01B12CA12C4AE0C501B40132
:1038D0000E94F918E80EF91EC501B4010E947E3A53
:1038E0009B01AC01C301B2010E9464394B015C0130
:1038F000DBCFC701CF911F910F91FF90EF90DF9029
:10390000CF90BF90AF909F908F907F906F905F907F
:103910004F9008952F923F924F925F926F927F92B5
:103920008F929F92AF92BF92CF92DF92EF92FF92CF
:103930000F931F93CF93DF9300D000D0CDB7DEB7A6
:103940003C017A8369835C834B83180129019E2C97
:10395000882DE98CFA8C0E94AB0405EB16E0F80187
:1039600075866486F786E68689819A810E946F193A
:103970008B819C81F80195878487F786E686492D9F
:10398000C201B1010E94AE1BF801D586C486F7863C
:10399000E686C5010F900F900F900F90DF91CF91A9
:1039A0001F910F91FF90EF90DF90CF90BF90AF905D
:1039B0009F908F907F906F905F904F903F902F904F
:1039C0000C946F198F929F92AF92BF92EF92FF92D9
:1039D0000F931F93CF93DF93EC014A015B01122FEA
:1039E000802F0E94AB04E5EBF6E0D587C487F7860D
:1039F000E686412FC501B401DF91CF911F910F9150
:103A0000FF90EF90BF90AF909F908F900C94AE1B63
:103A10000E94BF3DCF92DF92EF92FF920F931F93D0
:103A2000CF93DF93EC016A017B01C114D104E1045F
:103A3000F10431F4C12C22E1D22E2AE7E22EF12C3E
:103A40008FA987FD07C061E00E94A30561E08FA9EF
:103A50000E940D0561E088AD0E94A30561E088AD7C
:103A60000E940D058DA9811172C040E052E16AE704
:103A700070E0C416D506E606F70640F4769567951D
:103A8000579547958F5F8630A1F787E0982F906A0A
:103A9000969599A3809581708AA31BA21CA21DA252
:103AA0001EA20E9401178EA987FD21C061E00E941D
:103AB000A30561E08EA90E940D0564E670E080E038
:103AC00090E00E94AF0660E08EA90E940D0564E6BA
:103AD00070E080E090E00E94AF0661E08EA90E9455
:103AE0000D0568EC70E080E090E00E94AF068EA9C2
:103AF00087FF0DC020E050E040E061E0CE010E9471
:103B0000EF1066E970E080E090E00E94AF060FE5FC
:103B100016E0C8010196F8016491662309F463C0B8
:103B20000E5F1F4FFC01F490EF2CE894E7F82E2D68
:103B3000A801CE010E94EF100E0D111DF7FEE9CF76
:103B400066E970E080E090E00E94AF06E2CF04E812
:103B500018E0F12C8130B9F461E08AA50E94A30538
:103B600060E08AA50E940D0561E08CA50E94A30576
:103B700060E08CA50E940D058BA587FD94CF60E0C9
:103B80000E94A30590CFF8018491E82FF0E0EE0F9A
:103B9000FF1FE858F74F859194912F8D38A1281772
:103BA000390741F461E08F2D0E94A30560E08F2D5D
:103BB0000E940D05F3940F5F1F4FFBE1FF12E3CF4F
:103BC00061E08EA50E94A30561E08EA50E940D050F
:103BD0008FA587FD68CF61E00E94A30561E08FA5F6
:103BE0000E940D0560CF80EF90E09987888780E480
:103BF00091E09B878A87DF91CF911F910F91FF9072
:103C0000EF90DF90CF9008954F925F926F927F92E6
:103C10008F929F92AF92BF92CF92DF92EF92FF92DC
:103C20000F931F93CF93DF9300D000D01F92CDB797
:103C3000DEB70091FE050D832091F8043091F90460
:103C40004091FA045091FB0429833A834B835C83AF
:103C50000023A1F1809120019091210181359105EE
:103C60006CF52FE0289FA001299F500D1124052EEF
:103C7000000C660B770B09811A812B813C8104179C
:103C8000150726073707D0F040910C0550910D0518
:103C900060910E0570910F059C012F5F3F4F30938F
:103CA000210120932001880F991F880F991FFC0183
:103CB000EC54FC4F40835183628373830E94E1067E
:103CC000AB01BC018091A6029091A702A091A8022D
:103CD000B091A90286509F4FAF4FBF4F4817590769
:103CE0006A077B0708F48EC10E94E1066093A60272
:103CF0007093A7028093A8029093A90220E030E07D
:103D00004AE754E4609122017091230180912401DB
:103D1000909125010E94D6394B015C018092B2023C
:103D20009092B302A092B402B092B5028EE00E94CB
:103D3000650600EF10E0C12CD12C76018EE00E94C8
:103D40006506092E000CAA0BBB0BC80ED91EEA1E75
:103D5000FB1E0150110991F7C701B60132E096959B
:103D60008795779567953A95D1F70E947E3A20E03E
:103D700030E040E751E40E94D6396B017C01C092EB
:103D8000AE02D092AF02E092B002F092B10220E017
:103D900030E040E859E3C501B4010E94853BA7012A
:103DA00096010E94853B9B01AC010E9465394B0145
:103DB0005C018092A2029092A302A092A402B0920F
:103DC000A5021D8111110AC080910905811106C04B
:103DD00080910805811102C00E9437178CE996E096
:103DE0000E94831783E896E00E9483174090AC06F8
:103DF0005090AD066090AE067090AF06209193068D
:103E0000309194064091950650919606C301B201F7
:103E10000E9465396B017C0120E030E040EA50E40B
:103E20000E94303B87FD64C282E38093FD05809150
:103E3000FD05813309F073C240920C0550920D05C7
:103E400060920E0570920F050D81011109C08091DD
:103E50000905811105C080910805882309F46BC20A
:103E60002091AA023091AB024091AC025091AD0278
:103E7000C501B4010E9464392091180130911901E3
:103E800040911A0150911B010E94D63920911401D2
:103E90003091150140911601509117010E9465392A
:103EA0006B017C0120E030E0A9010E94303B181634
:103EB00024F0F7FAF094F7F8F094C0922403D0922B
:103EC0002503E0922603F092270380910D038823B7
:103ED000F1F080919E0290919F02A091A002B0917A
:103EE000A102892B8A2B8B2B91F080910C0590914C
:103EF0000D05A0910E05B0910F058093B40390932A
:103F0000B503A093B603B093B70310920D0381E1FC
:103F10000E946506BC01990F880B990B0E94803A9C
:103F20009B01AC0160E070E080E894E40E94D63927
:103F300020E030E040E85FE30E94643920E030E4B4
:103F40004CE156E40E94853B0E943D3B6B017C01A5
:103F50002AED3BE54FE354E30E94853BA701960120
:103F60000E94853BA70196010E94853B4B015C01A5
:103F700020EF30E845E859E3C701B6010E94853BD0
:103F800021E23DEE43E65AE30E9465399B01AC0114
:103F9000C501B4010E9465399B01AC0160E070E08D
:103FA00080E89FE30E94D63923E333E948E853E4ED
:103FB0000E94643920E030E040E250E40E9464391D
:103FC0006093090370930A0380930B0390930C038F
:103FD00020E030E040E151E40E94853B20E030E009
:103FE00040EA50E40E94D63920E030E040E052E45C
:103FF0000E9465396093050370930603809307035D
:1040000090930803C0900E03D0900F03E09010032C
:10401000F09011031D81112391F10E94E10600919E
:104020001203109113032091140330911503601BA8
:10403000710B820B930B28EE822E23E0922EA12C83
:10404000B12CA50194010E94403C20939E02309324
:104050009F024093A0025093A1020E94E1066C19B6
:104060007D098E099F09A50194010E94403C20937F
:104070009A0230939B0240939C0250939D02809140
:104080009E0290919F02A091A002B091A10229816D
:104090003A814B815C81281739074A075B0708F092
:1040A00053C18093F8049093F904A093FA04B09359
:1040B000FB0480909A0290909B02A0909C02B0908A
:1040C0009D02C814D904EA04FB0451F126E636E641
:1040D00046E650E460912403709125038091260305
:1040E000909127030E94D6399B01AC016091200377
:1040F0007091210380912203909123030E946539DE
:1041000060932003709321038093220390932303F1
:1041100080920E0390920F03A0921003B0921103AD
:10412000C0902003D0902103E0902203F09023035D
:1041300020911C0330911D0340911E0350911F03D9
:10414000C701B6010E94303B181644F4C0921C030C
:10415000D0921D03E0921E03F0921F0380911B0377
:104160008823D1F020E030E040E051E460910C057C
:1041700070910D0580910E0590910F050E94D13927
:10418000181654F08091F8049091F9049093070563
:104190008093060510921B0380911A038823D1F0A7
:1041A0002DEC3CEC4CEF50E460910C0570910D054A
:1041B00080910E0590910F050E94D139181654F088
:1041C0008091F8049091F90490930505809304057B
:1041D00010921A03809119038823D1F02AE939E952
:1041E00049EF50E460910C0570910D0580910E052A
:1041F00090910F050E94D139181654F08091F8045F
:104200009091F9049093030580930205109219038D
:10421000809118038823D1F020E030E040E850E49A
:1042200060910C0570910D0580910E0590910F0520
:104230000E94D139181654F08091F8049091F90435
:104240009093010580930005109218038091170345
:104250008823D1F02DEC3CEC4CE750E460910C0548
:1042600070910D0580910E0590910F050E94D13936
:10427000181654F08091F8049091F9049093FF047B
:104280008093FE0410921703809116038823D1F0C7
:104290002AE939E949E750E460910C0570910D0570
:1042A00080910E0590910F050E94D139181654F097
:1042B0008091F8049091F9049093FD048093FC049C
:1042C000109216030F900F900F900F900F90DF91A8
:1042D000CF911F910F91FF90EF90DF90CF90BF9003
:1042E000AF909F908F907F906F905F904F900895C8
:1042F00020E030E040EA50E4C701B6010E94D13925
:1043000087FF95CD20E030E040E05FE3C701B601D4
:104310000E94303B18160CF08ACD81E386CD8233A3
:1043200009F092CDC0920C05D0920D05E0920E05D9
:10433000F0920F0589CD109224031092250310925C
:10434000260310922703C1CD0D810111B2CE109228
:104350009E0210929F021092A0021092A102A9CE7A
:104360001F920F920FB60F9211242F933F938F93AA
:104370009F93AF93BF938091000690910106A09107
:104380000206B09103063091FF0523E0230F2D377D
:1043900068F126E8230F0296A11DB11D2093FF05A9
:1043A0008093000690930106A0930206B093030643
:1043B0008091040690910506A0910606B09107062B
:1043C0000196A11DB11D8093040690930506A0934C
:1043D0000606B0930706BF91AF919F918F913F91D1
:1043E0002F910F900FBE0F901F9018950196A11D51
:1043F000B11DD4CF1F920F920FB60F9211242F939D
:104400003F934F935F936F937F938F939F93AF935C
:10441000BF93EF93FF93E0910A01F0910B0109958F
:10442000FF91EF91BF91AF919F918F917F916F918C
:104430005F914F913F912F910F900FBE0F901F9062
:1044400018951F920F920FB60F9211242F933F933E
:104450004F935F936F937F938F939F93AF93BF938C
:10446000EF93FF93E0910801F09109010995FF9105
:10447000EF91BF91AF919F918F917F916F915F91DC
:104480004F913F912F910F900FBE0F901F90189555
:104490001F920F920FB60F9211242F933F934F93B9
:1044A0005F936F937F938F939F93AF93BF93EF939C
:1044B000FF938091B900887F803609F44CC008F0E2
:1044C0003FC0883209F4A8C018F5803109F49CC0B7
:1044D000B8F4882309F405C1883009F495C0FF9128
:1044E000EF91BF91AF919F918F917F916F915F916C
:1044F0004F913F912F910F900FBE0F901F901895E5
:10450000883109F489C0803251F78093FA0215C0CE
:10451000803409F4A6C048F48033B9F38833F9F63F
:104520008093FA020E94A504DACF803509F489C08D
:10453000883509F49EC0883491F60E949B04CFCF41
:10454000883909F494C038F5883729F050F4883652
:1045500011F0803721F683E08093FB021092F9027C
:1045600057C0883809F483C0803919F0803809F0C1
:10457000B6CF8091F902803208F079C0E091F9025B
:1045800081E08E0F8093F9028091BB00F0E0E7524A
:10459000FD4F80833DC0803B39F0E0F4803A09F460
:1045A00085C0883A09F09BCF84E08093FB0210928B
:1045B000D8021092D702E0910C06F0910D060995F1
:1045C0008091D70281110FC081E08093D7021092B1
:1045D000B70209C0803C09F482C0883C09F47FC05E
:1045E000883B09F07CCFE091D80281E08E0F809368
:1045F000D802F0E0E954FD4F80818093BB00909198
:10460000D8028091D70231C0809102038093BB0011
:1046100085EC8093BC0063CF9091010380910003EF
:104620009817B8F58091FE029091FF02E091010386
:1046300021E02E0F20930103E80FF92FF11D808157
:10464000E5CF2091FE023091FF02E091010381E06D
:104650008E0F809301038091BB00E20FF32FF11DB9
:1046600080839091010380910003981788F285E878
:10467000D0CF2091FE023091FF02E091010381E052
:104680008E0F809301038091BB00E20FF32FF11D89
:1046900080838091FD02811150CF81E08093FC02E4
:1046A00084EA8093BC001092FB0219CF0E94A504FB
:1046B0008091F902803230F4E091F902F0E0E752A3
:1046C000FD4F10826091F90270E0E0910A06F091CE
:1046D0000B0689ED92E009951092F90200CF85EC66
:1046E000E0CF1092FA0229CFCF92DF92EF92FF92A1
:1046F0000F931F93CF93DF93CEE0D6E01B821A82F5
:1047000088EE93E0A0E0B0E08C839D83AE83BF830E
:1047100089E491E09983888380E290E09D878C878B
:104720000E949A3C9F878E87188A198A1A8A80E28B
:1047300090E00E949A3C9C8B8B8B1D8A1E8A1F8A5C
:1047400088E795E09D8F8C8F86E995E09F8F8E8F0F
:104750008CE794E099A388A380E894E09BA38AA3C4
:1047600083E699E09DA38CA383E199E09FA38EA3A8
:104770008CEE98E099A788A783E994E09BA78AA785
:104780008BE994E09DA78CA785EA94E09FA78EA76C
:104790008FEA99E090930B0680930A0683EA99E0EA
:1047A00090930D0680930C06A5EBB6E013961C9231
:1047B0001E92129720EF30E015963C932E9314979B
:1047C00080E491E017969C938E93169719963C93EC
:1047D0002E9318971B969C938E931A9756961C921D
:1047E00056971D961C921E921C971F961C921E9205
:1047F0001E9781E055968C93559754968C935497B9
:104800002FEF3FEF53963C932E93529751963C9344
:104810002E93509757968C93579758961C9258976B
:104820005A961C921E925997D5961C92D59798E04D
:10483000D6969C93D6979AE0D7969C93D79799E073
:10484000D8969C93D897DA961C921E92D997DC96AC
:104850001C921E92DB97DD961C92DD97DE961C92D1
:10486000DE971092F4061092F5061092F60610925A
:10487000F7062EE336E090963C932E935F97EDE893
:10488000F8E0E491F0E0EE0FFF1FE858F74F2591B4
:1048900034915E963C932E935D97E6E6F8E0949112
:1048A000D3969C93D397EEE8F8E0E491F0E0EE0F16
:1048B000FF1FE858F74F259134915C963C932E9357
:1048C0005B97E7E6F8E0E491D196EC93D197E09519
:1048D000D296EC93D297E92FE095D496EC93D497A7
:1048E0002BE531E02D933C93ECE9F6E090E1908FDD
:1048F00040E050E060E870E440835183628373835A
:1049000003E313E323E93FE304831583268337831B
:1049100040E050E060E87FE3448B558B668B778BFB
:10492000E3E8F6E09FE0908FC12CD12CA0E4EA2EC2
:10493000FE2CC082D182E282F38204831583268317
:104940003783448B558B668B778BC7E4D6E02FE398
:1049500036E03F8F2E8F23E436E03D8F2C8F2BE304
:1049600031E039A328A31AAE1AAA1BAA1CAA1DAAB1
:1049700040E050E06FE773E44EAB5FAB68AF79AFF8
:1049800044E650E060E070E04EA75FA768AB79AB0B
:10499000198E188E21E030E03B8F2A8F8BAF8AE092
:1049A00097EDA3E2BCE388839983AA83BB8340E0AD
:1049B00050E060E771E44C835D836E837F831886EB
:1049C00019861A861B868C879D87AE87BF8780E0F5
:1049D00090E0A0ECBFE3888B998BAA8BBB8B1C8AE1
:1049E0001D8A1E8A1F8A0E94E1060EA51FA528A9FE
:1049F00039A9601B710B820B930B6AA37BA38CA359
:104A00009DA3DF91CF911F910F91FF90EF90DF90C9
:104A1000CF900895CF93DF93CDB7DEB72C970FB625
:104A2000F894DEBF0FBECDBF789484B5836084BD9B
:104A300085B5836085BD80916E00816080936E0036
:104A400082E0809381008091810081608093810069
:104A5000809180008160809380008091B1008460AB
:104A60008093B1008091B00081608093B00080910C
:104A70009100836080939100809190008160809389
:104A800090008091A10083608093A1008091A0009C
:104A900081608093A00087E880937A001092C10023
:104AA00010922A0160E08091B4060E94A30560E0A4
:104AB00080919B060E94A30561E087E00E94A30508
:104AC00061E087E00E940D0561E08AE00E94A30595
:104AD00060E08EE00E94A30560E081E10E94A305F2
:104AE00061E083E00E94A30561E08AE00E940D0579
:104AF00040E050E0BA0185EB96E00E940A1D61E0BB
:104B000085EB96E00E94661070E060E085EB96E031
:104B10000E944D158EE396E090933A0180933901FF
:104B20000E94011761E080912C010E94A30561E0C1
:104B300080912C010E940D0580912D018F3FE9F09D
:104B400060E00E94A30580912D01823009F4B5C177
:104B5000833069F488E698E090930B0180930A0112
:104B600080916900837F886080936900E99A8BE275
:104B700091E090930403809303031092A406109293
:104B8000A5061092A6061092A70610928B06109208
:104B90008C0610928D0610928E061092A806109226
:104BA000A9061092AA061092AB0610928F061092D8
:104BB000900610929106109292061092AC061092F6
:104BC000AD061092AE061092AF06109293061092A8
:104BD000940610929506109296060E94041E0E945A
:104BE00037176CE171E090E080E00E94BC1862E24F
:104BF00071E084E090E00E94BC186CE976E088E007
:104C000090E00E94BC1863E876E08CE090E00E949F
:104C1000BC1860EA76E080E190E00E94BC1867E88A
:104C200076E084E190E00E94BC1868E171E088E1E0
:104C300090E00E94BC1864E171E08CE190E00E9479
:104C4000BC180E949D186BE371E084E290E00E9422
:104C5000BC1866E271E088E290E00E94BC1860EB4C
:104C600076E08CE290E00E94BC1867E976E080E391
:104C700090E00E94BC1860E171E084E390E00E9443
:104C8000BC186CE071E088E390E00E94BC18809151
:104C9000240390912503A0912603B09127038093CC
:104CA000430690934406A0934506B0934606809130
:104CB0008106811102C00E94B30481E080938106C5
:104CC00070E060E085EB96E00E944D1580EE97E085
:104CD0009093C8068093C7069093C6068093C50636
:104CE00026E430E043E050E06BEF71E08CE390E0CD
:104CF0000E94931B2EE630E043E050E066E072E055
:104D000083E290E00E94931B26E930E043E050E00C
:104D100065E172E089E190E00E94931B68EE73E028
:104D200080E090E00E94AF0680E38093FA050E9445
:104D3000E31AE0E22E2EEDEF3E2E8EE00E94650695
:104D4000833191402CF560E078EF85EB96E00E948E
:104D50004D1529E130E046E050E065E272E08AE07E
:104D600090E00E94931B29E630E046E050E06EE2BE
:104D700072E08AE090E00E94931B68EE73E080E0AE
:104D800090E00E94AF0680E38093FA050E94E31A48
:104D90008091FE05811139C0809109058111F4C00F
:104DA000809108058111F0C08EE00E9465068F3564
:104DB00091400CF4E9C060E078EF85EB96E00E944A
:104DC0004D1529E130E046E050E067E372E08AE00B
:104DD00090E00E94931B29E630E046E050E060E45A
:104DE00072E08AE090E00E94931B68EE73E080E03E
:104DF00090E00E94AF0680E38093FA050E94E31AD8
:104E00008091FE05882309F4BFC08091FD05898348
:104E1000823309F0D9C18090AC069090AD06A09085
:104E2000AE06B090AF0620E030E048EC52E460916E
:104E300026017091270180912801909129010E94FB
:104E4000D6396B017C01AC019B01C501B4010E9404
:104E5000303B18160CF03FC0209193063091940619
:104E60004091950650919606C701B6010E94D1392E
:104E700087FF31C08091240390912503A0912603E0
:104E8000B09127038093430690934406A093450670
:104E9000B09346068091810681110E94ED066091D3
:104EA0003F067091400680914106909142060E9413
:104EB000483ACB010E94D4053EC088E698E0909322
:104EC000090180930801809169008C7F8260809342
:104ED0006900E89A4CCEA7019601C501B4010E9471
:104EE000D13987FD1EC020919306309194064091E0
:104EF000950650919606C701B6010E94303B1816E0
:104F000084F020E030E046EC52E4609109037091B7
:104F10000A0380910B0390910C030E94303B1816FA
:104F200054F410920B0510920A0590E080E00E9464
:104F3000D4051092FE058091100590911105181668
:104F40001906DCF4092E000CAA0BBB0B4091F804E7
:104F50005091F9046091FA047091FB04841795074D
:104F6000A607B70750F410920B0510920A0590E0BF
:104F700080E00E94D4051092FE05A981A13309F0BA
:104F800051C181E08093FC058091FA05803309F0DE
:104F90005BC20E94340F80913301909134018039BB
:104FA00091400CF4F7C20E94340F6091310170916E
:104FB000320180912F01909130010E9408186B01FD
:104FC0007C01C092F605D092F705E092F805F092C8
:104FD000F905BC01A60182E195E00E94ED17882346
:104FE00009F428C181E38093FA0570E060E085EB65
:104FF00096E00E944D153092C8062092C706309266
:10500000C6062092C50630E020E042E050E066EEA1
:1050100076E08AE090E00E945C1728E230E042E00F
:1050200050E06FED76E08AE090E00E945C1730E09F
:1050300020E042E050E065ED76E084EB90E00E94F5
:105040005C1728E230E042E050E06EEC76E084EB62
:1050500090E00E945C178AE090E090935B0580935B
:105060005A052BE4822E80925C0532E3932E9092B7
:105070005D054CE3A42EA0925E0558E4E52E52E0B7
:10508000F52EF0926505E092640580E098EF90932C
:10509000600580935F052FEF3FEF3093620520930B
:1050A000610562E0B62EB09263058AE595E00E9444
:1050B00076197AE5C72ED12CD0926705C092660585
:1050C0008092680590926905A0926A050AE412E050
:1050D000109371050093700580EE97E090936C0536
:1050E00080936B058FEF9FEF90936E0580936D0516
:1050F000B0926F0586E695E00E947619D09243053E
:10510000C092420588EC809344058CE88093450565
:1051100089E180934605AAE9B1E0B0934D05A093DB
:105120004C05EFE1F0E0F0934805E09347052FEFE1
:105130003FEF30934A0520934905B0924B0582E436
:1051400095E00E94761984EB90E09093D3058093CC
:10515000D2058092D4059092D505A092D605F09202
:10516000DD05E092DC058FE098E79093D805809309
:10517000D7051092DA051092D905B092DB0582EDC1
:1051800095E00E94761984E091E09093DF0580938A
:10519000DE058092E0059092E105A092E205109371
:1051A000E9050093E8058FEE93E09093E405809382
:1051B000E3051092E6051092E505B092E7058EED45
:1051C00095E00E94761940C19981913309F0B3CEE0
:1051D000C090AC06D090AD06E090AE06F090AF0661
:1051E00020E030E048EC52E4609126017091270104
:1051F00080912801909129010E94D6394B015C01D0
:10520000AC019B01C701B6010E94303B18160CF49B
:1052100031CEA5019401C701B6010E94D13987FDA5
:1052200080CE89CEB981B23309F0AECE81E08093D1
:10523000FB05AACEB701A6018EE195E00E94ED170D
:10524000882309F4EBC0A2E3CA2EC092FA0570E0ED
:1052500060E085EB96E00E944D153092C8062092E2
:10526000C7063092C6062092C50630E020E042E034
:1052700050E068E077E08AE090E00E945C1728E266
:1052800030E042E050E060E077E08AE090E00E94A9
:105290005C1730E020E042E050E068EF76E084EB1D
:1052A00090E00E945C1728E230E042E050E060EFBE
:1052B00076E084EB90E00E945C178AE090E09093A7
:1052C000730580937205BBE4AB2EA0927405C09267
:1052D00075051CE3B12EB092760508E412E0109338
:1052E0007D0500937C0580E098EF9093780580938E
:1052F000770510927A051092790582E0D82ED09227
:105300007B0582E795E00E9476199AE5E92EF12C5B
:10531000F0927F05E0927E05A0928005C092810503
:10532000B09282058AE492E0909389058093880583
:1053300080EE97E090938405809383051092860514
:1053400010928505D09287058EE795E00E94761928
:10535000F0924305E092420588EC809344058CE886
:105360008093450589E180934605AAE9B1E0B093B1
:105370004D05A0934C05EFE1F0E0F0934805E09374
:1053800047058FEF9FEF90934A0580934905D09290
:105390004B0582E495E00E94761984EB90E09093AF
:1053A000AF058093AE05A092B005C092B105B09252
:1053B000B2051093B9050093B8058FE098E7909374
:1053C000B4058093B3051092B6051092B505D0923E
:1053D000B7058EEA95E00E94761984E091E09093FB
:1053E000BB058093BA05A092BC05C092BD05B092E2
:1053F000BE052AE432E03093C5052093C4058FEE44
:1054000093E09093C0058093BF051092C20510925F
:10541000C105D092C3058AEB95E0D3CEB701A601B2
:105420008AE295E00E94ED17882309F473C583E3AF
:105430008093FA050E94041E70E060E085EB96E020
:105440000E944D150E94FF198091FA05813309F0E1
:10545000A1C020910806309109064FE0429FC0018B
:10546000439F900D11249093110580931005309265
:10547000C6062092C5061092C8061092C706009173
:105480003B0110913C0120913D0130913E011F9262
:10549000B6E9BF9373E0872E912CEAEBAE2EE1E0E4
:1054A000BE2EF6E9CF2ED12CF12CE12C49E150E0B3
:1054B0006CE472E084E690E00E948A1C6091100522
:1054C00070911105072E000C880B990B0E94803AF1
:1054D0008B019C011F92E6E9EF934EEB50E06EE4E6
:1054E00072E08AEF90E00E948A1C0E94340F0F90B5
:1054F0000F900F900F90809133019091340180397B
:1055000091400CF447C00E94340F609131017091BA
:10551000320180912F01909130010E9408186B0197
:105520007C01C092F605D092F705E092F805F09262
:10553000F905BC01A60186E695E00E94ED178823D7
:1055400009F421C5C0903B01D0903C01E0903D01A1
:10555000F0903E0120E030E044E352E4C701B601A0
:105560000E94D13987FF10C020E030E040E85FE3BF
:10557000C701B6010E94653960933B0170933C01FD
:1055800080933D0190933E0164E670E080E090E0FE
:105590000E94AF068091FA05823309F090C00E9404
:1055A000041E3092C6062092C5061092C8061092BC
:1055B000C70620E030E048EC52E46091260170918B
:1055C000270180912801909129010E94D6398B01F1
:1055D0009C011F9286E98F9383E0882E912C9AEB91
:1055E000A92E91E0B92E46E9C42ED12C52E0E52E29
:1055F000F12C4AE050E064ED71E08EE690E00E940C
:105600008A1C00910C0510910D0520910E0530911A
:105610000F051F9296E99F9363E0E62EF12C4AEA6C
:1056200050E064ED71E082E291E00E948A1C0E94E9
:10563000340F0F900F900F900F9080913301909145
:10564000340180399140DCF10E94340F60913101C6
:105650007091320180912F01909130010E940818C1
:105660006B017C01C092F605D092F705E092F80537
:10567000F092F905BC01A6018EE795E00E94ED17B6
:10568000882309F430C520E030E040E85FE3609112
:1056900026017091270180912801909129010E9493
:1056A00065396093260170932701809328019093B8
:1056B000290169E170E080E090E00E94AF068091EE
:1056C000FA05833309F022C28FEF9FEF9093C6064D
:1056D0008093C5061092C8061092C70682E0809398
:1056E000C9068093CA0620E030E048EC52E460919D
:1056F00026017091270180912801909129010E9433
:10570000D639AB01BC011EE1E12EF12C02E010E024
:1057100022E030E085E590E00E94E21C22E330E0E8
:1057200042E050E06DE477E090E080E00E945C179A
:1057300020E030E0A90160910C0570910D05809189
:105740000E0590910F050E94D13987FF08C0109275
:105750000C0510920D0510920E0510920F05409148
:105760000C0550910D0560910E0570910F05F2E347
:10577000EF2EF12C02E010E023E030E08BE490E02B
:105780000E94E21C40913B0150913C0160913D011F
:1057900070913E01AEE1EA2EF12C30E020E08CED7C
:1057A00090E00E94E21C40912403509125036091F7
:1057B000260370912703B2E3EB2EF12C21E030E0B9
:1057C00082ED90E00E94E21C20E030E040E251E4F3
:1057D0006091240370912503809126039091270303
:1057E0000E94D13987FF0EC0F12CE12C0FE010E0B0
:1057F0002FE030E042E350E065EF70E085EB96E0AB
:105800000E94910CF12CE12C0AE010E020EA30E03B
:105810004AE550E060EA70E085EB96E00E94910C6A
:105820006091F8047091F9048091FA049091FB045E
:105830000E947E3AAB01BC01EAE5EE2EF12C01E0BC
:1058400010E030E020E080EA90E00E94E21C40910D
:105850001C0350911D0360911E0370911F0330E0E3
:1058600020E080EF90E00E94E21CC0900903D090FD
:105870000A03E0900B03F0900C0320E030E040E2DC
:1058800052E4C701B6010E94303B18160CF09AC4CE
:1058900080E098EF9093C6068093C5061092C806E4
:1058A0001092C7062EE630E041E050E061E477E078
:1058B00080EA90E00E945C174091090350910A032E
:1058C00060910B0370910C0388E7E82EF12C30E017
:1058D00020E080EA90E00E94E21CAA24A394CC2459
:1058E000C394EE24E394F12C00E018EF27EF48E78F
:1058F00050E064EB70E085EB96E00E947F1128E7B2
:1059000030E041E050E06FE377E08EEB90E00E9402
:105910005C17409105035091060360910703709155
:10592000080322E8E22EF12C01E010E030E020E054
:1059300080EA90E00E94E21CEE24E394F12C00E067
:1059400018EF27EF42E850E064EB70E085EB96E05B
:105950000E947F1122E830E041E050E06DE377E003
:105960008EEB90E00E945C1721EE3AEF47EC52E498
:1059700060910503709106038091070390910803DD
:105980000E94D139181674F0F12CE12C04E110E0DA
:1059900028E030E048E750E06CEA70E085EB96E004
:1059A0000E94910C8FEF9FEF9093C6068093C506DF
:1059B0001092C8061092C706C0900C05D0900D0535
:1059C000E0900E05F0900F0520E030E040E05FE34E
:1059D000C701B6010E94D13918160CF45FC426E441
:1059E00030E041E050E06FE177E090E080E00E943D
:1059F0005C17F12CE12C04E110E024E630E040E5F6
:105A000050E070E060E085EB96E00E94910C8091A0
:105A1000FE05882309F4F3C480EA90E090938B0597
:105A200080938A0586E980938C058CE880938D05A8
:105A30008EE180938E0587E891E0909395058093A1
:105A4000940580E098EF9093900580938F058FEFF9
:105A50009FEF909392058093910582E08093930548
:105A60008AE895E00E9476190E94041E0E94340F75
:105A70008091330190913401803991400CF446C0FB
:105A80000E94340F609131017091320180912F0199
:105A9000909130010E940818AB01BC014093F605BB
:105AA0005093F7056093F8057093F9058091FE0512
:105AB00081110BC082E495E00E94ED17882329F044
:105AC00080E38093FA050E94E31AC090F605D09017
:105AD000F705E090F805F090F905B701A60186E911
