:100000000C9451040C9416220C94EF210C94790456
:100010000C9479040C9479040C9479040C9479046C
:100020000C9479040C9479040C9479040C9479045C
:100030000C9479040C9479040C9479040C9479044C
:100040000C94A5210C9479040C9479040C947904F3
:100050000C9479040C9479040C9479040C9479042C
:100060000C943D220C9479040C9479040C9479043A
:100070000C9479040C9479040C9479040C9479040C
:100080000C9479040C9479040C9479040C947904FC
:100090000C9479040C9479040C9479040C947904EC
:1000A0000C9479040C9479040C9479040C947904DC
:1000B0000C94790408000000BE922449123EABAAB9
:1000C000AA2ABECDCCCC4C3E00000080BEABAAAA72
:1000D000AA3E00000000BF000000803F00000000BA
:1000E00000084178D3BB4387D1133D190E3CC3BDF3
:1000F0004282AD2B3E68EC8276BED98FE1A93E4CA0
:1001000080EFFFBE01C4FF7F3F0000000000312EE2
:1001100000332E00322E004D41494E204D454E55A4
:10012000006D41680054696D65004100437572209F
:100130000041005261746520004C6F61643A0056C2
:100140000056004375746F666620004261747465E2
:1001500072793A002020204D454E550000000000E5
:10016000003E5B4F5B3E3E6B4F6B3E1C3E7C3E1C3D
:10017000183C7E3C181C577D571C1C5E7F5E1C0083
:10018000183C1800FFE7C3E7FF0018241800FFE73A
:10019000DBE7FF30483A060E2629792926407F05FD
:1001A0000507407F05253F5A3CE73C5A7F3E1C1C13
:1001B00008081C1C3E7F14227F22145F5F005F5FD3
:1001C00006097F017F006689956A606060606094BF
:1001D000A2FFA29408047E040810207E20100808C4
:1001E0002A1C08081C2A08081E101010100C1E0CCF
:1001F0001E0C30383E3830060E3E0E060000000061
:100200000000005F00000007000700147F147F1447
:10021000242A7F2A1223130864623649562050008C
:1002200008070300001C2241000041221C002A1C78
:100230007F1C2A08083E0808008070300008080863
:100240000808000060600020100804023E51494583
:100250003E00427F400072494949462141494D33A1
:100260001814127F1027454545393C4A4949314108
:10027000211109073649494936464949291E0000D6
:10028000140000004034000000081422411414142B
:100290001414004122140802015909063E415D5917
:1002A0004E7C1211127C7F494949363E4141412220
:1002B0007F4141413E7F494949417F090909013E4A
:1002C000414151737F0808087F00417F4100204071
:1002D000413F017F081422417F404040407F021C83
:1002E000027F7F0408107F3E4141413E7F0909099A
:1002F000063E4151215E7F09192946264949493266
:1003000003017F01033F4040403F1F2040201F3F2B
:100310004038403F631408146303047804036159B0
:10032000494D43007F4141410204081020004141F2
:10033000417F04020102044040404040000307089E
:100340000020545478407F2844443838444444289A
:10035000384444287F385454541800087E09021841
:10036000A4A49C787F0804047800447D40002040C9
:10037000403D007F1028440000417F40007C04780D
:1003800004787C080404783844444438FC18242455
:100390001818242418FC7C080404084854545424D5
:1003A00004043F44243C4040207C1C2040201C3C52
:1003B0004030403C44281028444C9090907C446449
:1003C000544C4400083641000000770000004136DC
:1003D000080002010204023C2623263C1EA1A16162
:1003E000123A4040207A3854545559215555794194
:1003F0002254547842215554784020545579400C69
:100400001E5272123955555559395454545939554B
:100410005454580000457C410002457D420001458E
:100420007C407D1211127DF0282528F07C54554522
:10043000002054547C547C0A097F4932494949328E
:100440003A4444443A324A4848303A4141217A3A9F
:1004500042402078009DA0A07D3D4242423D3D406B
:1004600040403D3C24FF2424487E4943662B2FFC1A
:100470002F2BFF0929F620C0887E090320545479C8
:10048000410000447D413048484A32384040227A99
:10049000007A0A0A727D0D19317D2629292F282616
:1004A0002929292630484D4020380808080808081E
:1004B0000808382F10C8ACBA2F102834FA00007B77
:1004C000000008142A142222142A1408550055008A
:1004D00055AA55AA55AAFF55FF55FF000000FF0079
:1004E000101010FF00141414FF001010FF00FF1074
:1004F00010F010F0141414FC001414F700FF0000A6
:10050000FF00FF1414F404FC141417101F10101F24
:10051000101F1414141F00101010F0000000001F12
:10052000101010101F10101010F010000000FF101D
:100530001010101010101010FF10000000FF140019
:1005400000FF00FF00001F10170000FC04F414144B
:100550001710171414F404F40000FF00F714141417
:1005600014141414F700F7141414171410101F1097
:100570001F141414F4141010F010F000001F101FBA
:100580000000001F14000000FC140000F010F01028
:1005900010FF10FF141414FF141010101F0000009F
:1005A00000F010FFFFFFFFFFF0F0F0F0F0FFFFFFA3
:1005B0000000000000FFFF0F0F0F0F0F38444438FA
:1005C00044FC4A4A4A347E02020606027E027E0249
:1005D00063554941633844443C04407E201E200654
:1005E000027E020299A5E7A5991C2A492A1C4C7291
:1005F00001724C304A4D4D303048784830BC625A18
:10060000463D3E494949007E0101017E2A2A2A2AA7
:100610002A44445F444440514A444040444A514083
:100620000000FF0103E080FF000008086B6B083644
:1006300012362436060F090F0600001818000000B5
:100640001010003040FF0101001F01011E00191DA4
:100650001712003C3C3C3C0000000000EF0303800C
:1006600002CF0300C130ED0464031281E80385006A
:1006700078CB05392C003402F70120EA020000C0D3
:100680000123C10110C5023E28C701863601483743
:1006900001003A0155B1020018B603088227F201A1
:1006A00000260101E00F0F312B0C0E084EF1370729
:1006B00010030E0900E10F000E1403110731C148A9
:1006C000080F0C31360F11802980004D4F44453AF8
:1006D000004355544F464620564F4C54533A00441D
:1006E00049534348415247452054494D453A0044F7
:1006F000495343484152474520524154453A004CE2
:1007000069706F203153004C69706F203253004E76
:100710006F7420436F6E6E656374656400460043BA
:100720000054656D706572617475726500460043B2
:100730000054656D70657261747572650042617414
:1007400074200032303041205620556E646572208E
:100750004C6F6164003230304120562044726F701B
:10076000004952205620556E646572204C6F6164BA
:1007700000495220562044726F70003230304120C0
:100780006D004952206D00544F54414C0043656C3C
:100790006C320043656C6C3100382E3735007300C5
:1007A00052756E54696D65004D696E7574657300A0
:1007B000332E39562020205365636F6E64730033E7
:1007C0002E39355620205365636F6E647300342EC6
:1007D00030562020205365636F6E647300372E38C7
:1007E000562020205365636F6E647300372E395690
:1007F0002020205365636F6E647300382E305620BE
:1008000020205365636F6E6473004D696C6573746B
:100810006F6E657300564F4C544147452056532E1A
:100820002054494D45004E6F726D616C004D696EEC
:1008300069205A0000000000240027002A002D0033
:100840000A0D0E0900030200000405080000000064
:100850000000000000000000000000010204081079
:1008600020408001020408102001020408102040EA
:1008700080400102040800000000250028002B0031
:100880002E0004040404040404040202020202020E
:100890000303030303030202030505050500B52353
:1008A000C23911241FBECFEFD8E0DEBFCDBF12E0AA
:1008B000A0E0B1E0E8EBFCE702C005900D92A4399E
:1008C000B107D9F727E0A4E9B2E001C01D92A33136
:1008D000B207E1F714E0C0E5D4E004C02197FE01BF
:1008E0000E94ED3CCF34D107C9F70E94B0250C948B
:1008F0004F3E0C940000880F8093BA0008959B012E
:10090000AC0160E074E284EF90E00E94CB3C2051A7
:1009100031094109510956954795379527952093F7
:10092000B8000895882321F085EC8093BC000895D9
:1009300085E8FBCF85ED8093BC008091BC0084FDF1
:10094000FCCF1092F702089585EC8093BC001092C2
:10095000F7020895811101C081E08093E006809341
:10096000E10608958F929F92AF92BF92CF92DF924D
:10097000EF92FF92E0917C06F0917D06C080D180DD
:10098000E280F380C0928406D0928506E0928606CB
:10099000F0928706E0917A06F0917B068081918142
:1009A000A281B3818093880690938906A0938A06DA
:1009B000B0938B068090940690909506A090960632
:1009C000B0909706A5019401C701B6010E94BB3BF8
:1009D00018164CF48092840690928506A0928606A2
:1009E000B092870610C08090900690909106A090DB
:1009F0009206B0909306A5019401C701B6010E942A
:100A00005C3A87FDE7CFFF90EF90DF90CF90BF90EB
:100A1000AF909F908F900895282F30E0F901E05C0F
:100A2000F74F9491F901E55AF74F84912E57374FBC
:100A3000F9012491222309F42EC09923D9F0925070
:100A40009D30C0F4E92FF0E0E85DFA4F0C94ED3CE6
:100A50006E05720535054C053A053A0550055605F3
:100A60005A0560053A0564056A05909180009F77F4
:100A700090938000E22FF0E0EE0FFF1FEA58F74F4F
:100A8000A591B4919FB7F894EC9161112EC0809517
:100A90008E238C939FBF0895909180009F7DE8CF17
:100AA0009091B0009F779093B000E4CF9091B00008
:100AB0009F7DF9CF909190009F7790939000DACF2F
:100AC000909190009F7DF9CF9091A0009F77909397
:100AD000A000D0CF9091A0009F7DF9CF94B59F77D3
:100AE00094BDC8CF94B59F7DFBCF8E2BD2CF1092F3
:100AF000F70281E08093F9021092F80261E082E14E
:100B00000E940C0561E083E10E940C05E9EBF0E036
:100B100080818E7F808380818D7F808388E4809335
:100B2000B80085E48093BC000895ECEBF0E0808190
:100B30008A7B808360E082E10E940C0560E083E1B3
:100B40000C940C05CF93DF9390E0FC01E55AF74F2E
:100B500024918E57974FFC0184918823D1F090E027
:100B6000880F991FFC01EC5CF74FA591B491FC0133
:100B7000EA58F74FC591D49161110EC09FB7F89410
:100B80008C91E22FE0958E238C932881E223E883D9
:100B90009FBFDF91CF9108958FB7F894EC91E22B2E
:100BA000EC938FBFF6CFCF93DF93EC0161E083E04E
:100BB0000E94A205209731F460E083E0DF91CF919D
:100BC0000C940C05CF3FD10511F461E0F6CFE3E4BE
:100BD000F8E0E491E250ED3008F071C0F0E0ED5043
:100BE000FA4F0C94ED3C000607060C0616065F064D
:100BF0005F062006280630063A065F0645065406BC
:100C000084B5806884BDC7BDDF91CF91089584B558
:100C1000806284BDC8BDF8CF8091800080688093D9
:100C20008000D0938900C0938800EECF809180002F
:100C3000806280938000D0938B00C0938A00E4CFC1
:100C40008091B00080688093B000C093B300DCCF87
:100C50008091B00080628093B000C093B400D4CF84
:100C600080919000806880939000D0939900C09309
:100C70009800CACF5A9A8091900080628093900029
:100C8000D0939B00C0939A00BFCF8091A000806852
:100C90008093A0008091A0008F7B8093A000D093D0
:100CA000A900C093A800B0CF5A9A8091A00080629A
:100CB0008093A000D093AB00C093AA00A5CFC0380A
:100CC000D1050CF082CF78CF883038F092EF980FB2
:100CD0009B30D8F08931D8F0835120912E0190E4D7
:100CE000299F900111248770822B80937C00809132
:100CF0007A00806480937A0080917A0086FDFCCF30
:100D000080917800909179000895892FE6CF8FEF38
:100D1000E4CF3FB7F89480911D0690911E06A091F4
:100D20001F06B091200626B5A89B05C02F3F19F0DD
:100D30000196A11DB11D3FBFBA2FA92F982F88275B
:100D4000BC01CD01620F711D811D911D42E0660F36
:100D5000771F881F991F4A95D1F708958F929F9208
:100D6000AF92BF92CF92DF92EF92FF924B015C0164
:100D70000E9489066B017C010E9489066C197D091D
:100D80008E099F09683E734081059105A8F321E013
:100D9000821A9108A108B10888EEC80E83E0D81E17
:100DA000E11CF11C81149104A104B10429F7FF9006
:100DB000EF90DF90CF90BF90AF909F908F9008956D
:100DC0002FB7F8946091190670911A0680911B064E
:100DD00090911C062FBF08953F924F925F926F92A1
:100DE0007F928F929F92AF92BF92CF92DF92EF92BB
:100DF000FF920F931F93CF93DF93CDB7DEB72E975C
:100E00000FB6F894DEBF0FBECDBF0E94E0066D8323
:100E10007E838F8398878091800690918106A09130
:100E20008206B09183064D815E816F817885481B73
:100E3000590B6A0B7B0B80918C0690918D06A091CB
:100E40008E06B0918F06481759076A077B0708F48A
:100E50003CC1E0917A06F0917B0680819181A2816C
:100E6000B38189839A83AB83BC83E0917E06F09142
:100E70007F069C01AD0160817181828193810E9416
:100E8000EF394B015C012091880630918906409131
:100E90008A0650918B0669817A818B819C810E94A0
:100EA000EF396B017C0120916E0630916F06409105
:100EB000700650917106C501B4010E94103C20914A
:100EC00084063091850640918606509187060E94DF
:100ED000F0392B013C0140928406509285066092C5
:100EE0008606709287063090990631101AC02091BC
:100EF0006A0630916B0640916C0650916D06C701F1
:100F0000B6010E94103C9B01AC01C301B2010E94DA
:100F1000EF396093840670938506809386069093DC
:100F200087064090840650908506609086067090F3
:100F3000870610919406909195069E87A09196063B
:100F4000AD8700919706212F392F4A2F502FC301CB
:100F5000B2010E94BB3B18160CF09AC0812F9E85EF
:100F6000AD85B02F8093840690938506A093860666
:100F7000B0938706332009F4A4C020916A0630910B
:100F80006B0640916C0650916D06C501B4010E943C
:100F9000103C4B015C012091720630917306409128
:100FA000740650917506C701B6010E94103C9B0162
:100FB000AC016091840670918506809186069091BF
:100FC00087060E94EF39A50194010E94F0396B0158
:100FD0007C019B01AC01612F7E858D85902F0E9445
:100FE0005C3A87FD18C010919006909191069E87FB
:100FF000A0919206AD8700919306212F392F4A2F99
:10100000502FB601C7010E945C3A87FD04C01C2D19
:10101000DE86ED860F2DE0917C06F0917D06812F16
:101020009E85AD85B02F80839183A283B383898110
:101030009A81AB81BC818093880690938906A093A6
:101040008A06B0938B068D819E81AF81B88580938F
:10105000800690938106A0938206B093830681E078
:101060002E960FB6F894DEBF0FBECDBFDF91CF91A5
:101070001F910F91FF90EF90DF90CF90BF90AF90B6
:101080009F908F907F906F905F904F903F900895CA
:101090008091900690919106A0919206B09193064E
:1010A00089879A87AB87BC879C01AD01C301B201D8
:1010B0000E945C3A87FF5ECF89859A85AB85BC85A7
:1010C00051CF812C912C540166CF80E0C9CFE091A3
:1010D000FF02F091000381E0808308950895AF92AC
:1010E000BF92CF92DF92EF92FF920F931F93CF9315
:1010F000DF936C017B018B01040F151FEB015E0177
:10110000AE18BF08C017D10759F06991D601ED910B
:10111000FC910190F081E02DC6010995892B79F7AA
:10112000C501DF91CF911F910F91FF90EF90DF905C
:10113000CF90BF90AF900895FC01E61BF70B6817A6
:1011400079071CF0FB01E81BF90B9C01241B350BF4
:10115000481759071CF09A01281B390BDA01A61B06
:10116000B70B641775071CF0DB01A41BB50B2E171A
:101170003F075CF0AE17BF072CF0860F971F9595C1
:1011800087950895E217F3072CF0840F951FA21797
:10119000B307ACF7640F751FCB01F1CF0CB405FC9E
:1011A0000DC09EBD00000DB407FEFDCF9EB58EBDE7
:1011B00000000DB407FEFDCF8EB508958EBD000072
:1011C0000DB407FEFDCF8EB59EBD00000DB407FE29
:1011D000FDCF9EB508952091D302260F3327331FEC
:1011E00021323105ECF42091F702FC0190E080E01F
:1011F000243069F082E00895A091D3022191AC01DE
:101200004D545D4FA40FB52FB11D2C930196861739
:1012100098F38091D302680F6093D30280E0089521
:1012200081E008950F93413208F044C09091F70295
:101230009111FCCF92E09093F7020093F9029FEF97
:101240009093F6027093FB026093FA021092FD02F3
:101250004093FC021092FE029091FE02880F892BAF
:101260008093FE028091F802813011F51092F8020D
:101270008091FE028093BB008091BC0083FDF8CF7B
:1012800085EC8093BC00222321F08091F70282300C
:10129000D1F38091F6028F3F79F08091F60280328F
:1012A00069F08091F602803359F084E00F9108953F
:1012B00085EEE7CF81E0FACF80E0F8CF82E0F6CF8D
:1012C00083E0F4CF4132E0F59091F7029111FCCF29
:1012D00091E09093F7022093F9022FEF2093F6020A
:1012E0007093FB026093FA021092FD02240F209388
:1012F000FC029093FE029091FE02880F892B80934E
:10130000FE028091F8028130C9F41092F8028091B7
:10131000FE028093BB008091BC0083FDF8CF85EC7A
:101320008093BC008091F7028130E1F38091FD024F
:10133000841710F44091FD02842F089585EEF0CFBC
:1013400040E0FACFE0913D06F0913E06309729F05B
:1013500010923A0610923B0609940895DC018091A0
:101360003F0690914006892B19F1909135068091A6
:1013700036069817E8F090E0292F30E02617370757
:101380006CF4FD01E20FF31F4081E0913306F09110
:101390003406E20FF31F40839F5FEECF10923506B5
:1013A00060933606E0913F06F0914006CB01099428
:1013B00008950895DC015096EC91509751968C91C8
:1013C0005197E81748F41E968D919C91E80FF92FDC
:1013D000F11D808190E008958FEF9FEF0895FC014B
:1013E000908981892FEF3FEF981740F4A685B78544
:1013F000A90FB11D2C9130E09F5F908BC90108951A
:10140000FC0181899089891B990B0895CF92DF9205
:10141000EF92FF920F931F93CF93DF938C01CB0139
:101420007A01D80157962C915797222389F0EB0126
:101430006B01C40ED51ECC15DD0579F06991D8017C
:10144000ED91FC910190F081E02DC8010995F3CF59
:101450009896ED91FC91642F0995C701DF91CF918A
:101460001F910F91FF90EF90DF90CF900895CF9351
:10147000DF931F92CDB7DEB7FC016983878988238C
:10148000F9F02689848595852817190654F081E09E
:1014900090E09383828390E080E00F90DF91CF9182
:1014A00008958981A58923893489A20FB32FB11D9D
:1014B0008C9385898F5F858B868B81E090E0EDCF63
:1014C00000A4F1A5E02D61E0CE0101960995F5CFCC
:1014D000FC01A5A1B6A18C9192A589238C93A5A10D
:1014E000B6A18C9191A5892B8C9308950F931F938E
:1014F000CF93DF93EC018B018DA981110DC01EBD2F
:101500000DB407FEFDCF0EBD0DB407FEFDCFDF917C
:10151000CF911F910F9108958130E9F480E1E9A105
:10152000FAA1908117FF14C02DA1922B9083EBA1FB
:10153000FCA190812FA1922B9083EBA1FCA1908123
:1015400028A592239083000F111F815041F7DFCF10
:101550002EA19223EBCFEF8DF8A11083CE010E9434
:10156000680AEF8DF8A10083CE01DF91CF911F9122
:101570000F910C94680AFC0185A9811105C06EBD0C
:101580000DB407FEFDCF08958130E1F488E0A1A1FC
:10159000B2A19C9167FF13C025A1922B9C93A3A19C
:1015A000B4A19C9127A1922B9C93660FA3A1B4A1F7
:1015B0009C9120A592239C93815049F7089526A1E0
:1015C0009223ECCFA78DB0A16C93CF010C94680A45
:1015D000CF93DF93EC01ED8DFE8D80819CA9892353
:1015E0008083CE010E94BB0AED8DFE8D80819BA978
:1015F000892B8083DF91CF910895AF92BF92CF92D4
:10160000DF92EF92FF920F931F93CF93DF93EC0142
:101610005B016A01215031097901E60EF71E015084
:101620001109040F151F809106019091070186177B
:10163000970739F480910401909105018E159F055B
:10164000A1F06AE2CE010E94E80AB501CE010E9433
:10165000760AB701CE010E94760AB0920701A092E5
:101660000601F0920501E09204018091020190913F
:1016700003018C159D0539F48091000190910101C1
:1016800080179107A1F06BE2CE010E94E80AB60133
:10169000CE010E94760AB801CE010E94760AD0924D
:1016A0000301C092020110930101009300016CE25A
:1016B000CE01DF91CF911F910F91FF90EF90DF90BE
:1016C000CF90BF90AF900C94E80A1F93CF93DF9315
:1016D000EC01162FE881F9810284F385E02D09954C
:1016E000112371F06DADCE010E94E80AE881F98105
:1016F0000688F789E02DCE01DF91CF911F910994E3
:101700006EADF1CFAF92BF92CF92DF92EF92FF9288
:101710000F931F93CF93DF93EC0177FD38C088853B
:101720009985681779079CF557FD31C08A859B8597
:101730004817590764F569017A015B01E881F9816D
:101740000284F385E02DCE010995E881F98102A498
:10175000F3A5E02D01E010E021E030E0A701B501A4
:10176000CE010995B601CE010E94760AE881F98181
:101770000688F789E02DCE01DF91CF911F910F915F
:10178000FF90EF90DF90CF90BF90AF900994DF91E2
:10179000CF911F910F91FF90EF90DF90CF90BF906E
:1017A000AF9008958F929F92AF92BF92CF92DF92A7
:1017B000EF92FF920F931F93CF93DF93EC014901B8
:1017C0005701E881F98102A4F3A5E02D0995940160
:1017D000D8010E94F33C6B017C01C114D104E104E7
:1017E000F10409F490C08DA9811115C081E0C81AD7
:1017F000D108E108F1088FEFC816D806E806F80608
:1018000009F481C0BEBC0DB407FEFDCFAEBC0DB463
:1018100007FEFDCFEBCF813009F045C081E0C81A4B
:10182000D108E108F1088FEFC816D806E806F806D7
:1018300009F469C09B2D88E0E9A1FAA1208197FFF6
:101840002CC03DA1232B2083EBA1FCA120813FA133
:10185000232B2083EBA1FCA1208138A52323208307
:10186000990F815049F79A2D88E0E9A1FAA12081CA
:1018700097FF16C03DA1232B2083EBA1FCA1208163
:101880003FA1232B2083EBA1FCA1208138A523239A
:101890002083990F815049F7C1CF3EA12323D3CF95
:1018A0003EA12323E9CFBA1016C0CC0CDD1CEE1CE0
:1018B000FF1CEF8DF8A1B08281E0C81AD108E108C1
:1018C000F1088FEFC816D806E806F806E1F0CE0159
:1018D0000E94680AF1CF81E0C81AD108E108F10836
:1018E0008FEFC816D806E806F80669F0EF8DF8A164
:1018F000B082CE010E94680AEF8DF8A1A082CE01CD
:101900000E94680AE8CFDF91CF911F910F91FF905D
:10191000EF90DF90CF90BF90AF909F908F90089501
:101920008F929F92AF92BF92CF92DF92EF92FF92EF
:101930000F931F93CF93DF934C01EB016A01590181
:1019400037FF07C0C9010196C80FD91FB194A194F0
:10195000B108F401A085B185CA17DB070CF058C0A7
:1019600017FF07C0C8010196C80ED91E1195019531
:101970001109F40182859385C816D9060CF048C078
:10198000FE01EA0DFB1DAF014150510957FD40C05A
:10199000B601600F711F9B012150310937FD38C01E
:1019A000D7FF03C05F01D0E0C0E0D7FE03C08B01CA
:1019B000D12CC12C4A175B071CF05D01AC1ABD0A83
:1019C000281739071CF08C010C191D09D401ED9161
:1019D000FC910284F385E02DC40109959501A601CF
:1019E000BE01C4010E94D20BD401ED91FC91068886
:1019F000F789E02DC401DF91CF911F910F91FF90E6
:101A0000EF90DF90CF90BF90AF909F908F90099410
:101A1000DF91CF911F910F91FF90EF90DF90CF90CA
:101A2000BF90AF909F908F900895EF92FF920F9389
:101A30001F932115310529F00115110511F00E94A0
:101A4000900C1F910F91FF90EF9008958F929F92AD
:101A5000AF92BF92CF92DF92EF92FF920F931F93BC
:101A6000CF93DF935C014B016A01E90177FD52C01E
:101A7000DC0118968D919C91681779070CF04AC08B
:101A8000209709F447C037FF07C0C9010196C80E67
:101A9000D91ED195C195D109F50182859385C816C6
:101AA000D906C4F5A6014C0F5D1F9A0121503109DA
:101AB00037FD30C0D7FE03C0EA01D12CC12C281756
:101AC00039071CF0EC01CC19DD09D501ED91FC9131
:101AD0000284F385E02DC501099578018E0121E08E
:101AE00030E0A601B401C5010E94D20BD501ED91F1
:101AF000FC910688F789E02DC501DF91CF911F91F8
:101B00000F91FF90EF90DF90CF90BF90AF909F909C
:101B10008F900994DF91CF911F910F91FF90EF90DB
:101B2000DF90CF90BF90AF909F908F9008958F924D
:101B30009F92AF92BF92CF92DF92EF92FF920F935C
:101B40001F93CF93DF935C016B014A01E90157FDBD
:101B500052C0DC011A968D919C91481759070CF0E0
:101B60004AC0209709F447C037FF07C0C901019652
:101B7000C80ED91ED195C195D109F50180859185F1
:101B8000C816D906C4F5A6014C0F5D1F9A01215055
:101B9000310937FD30C0D7FE03C0EA01D12CC12C7A
:101BA000281739071CF0EC01CC19DD09D501ED919E
:101BB000FC910284F385E02DC5010995780101E0CF
:101BC00010E09E01A401B601C5010E94D20BD5010F
:101BD000ED91FC910688F789E02DC501DF91CF9149
:101BE0001F910F91FF90EF90DF90CF90BF90AF903B
:101BF0009F908F900994DF91CF911F910F91FF904B
:101C0000EF90DF90CF90BF90AF909F908F9008950E
:101C1000EF92FF920F931F93CF93DF9377FD32C024
:101C2000DC011896ED91FC916E177F075CF521158C
:101C3000310541F137FF07C0F90131964E0F5F1FA3
:101C4000319521953109DC011A96ED91FC914E17E1
:101C50005F07C4F4EA01C20FD31FDE011197B7FD7D
:101C600011C057FF03C09E0150E040E0AE17BF0710
:101C70001CF09F01241B350B7801890121E030E025
:101C80000E94D20BDF91CF911F910F91FF90EF90A7
:101C90000895EF92FF920F931F93CF93DF9357FD19
:101CA00031C0DC011A96ED91FC914E175F0754F597
:101CB0002115310539F137FF07C0F90131966E0F53
:101CC0007F1F319521953109DC011896ED91FC912A
:101CD0006E177F07BCF4EB01C20FD31FDE01119713
:101CE000B7FD10C077FF03C09E0170E060E0AE1743
:101CF000BF071CF09F01261B370B780101E010E0A5
:101D00000E94D20BDF91CF911F910F91FF90EF9026
:101D100008958F929F92AF92BF92CF92DF92EF92EF
:101D2000FF920F931F93CF93DF9347012115310546
:101D300009F44BC00115110509F447C037FF07C06E
:101D4000F90131966E0F7F1F319521953109DC0124
:101D50001896AD90BC906A157B05BCF517FF07C0BF
:101D6000F80131964E0F5F1F119501951109DC01A5
:101D70001A96ED91FC914E175F073CF56B01C20E70
:101D8000D31EE6012197D7FD20C07A01E00EF11E97
:101D9000D7011197B7FD19C077FF03C0960170E016
:101DA00060E057FF03C0870150E040E0CA15DB0543
:101DB0001CF09501261B370BAE17BF071CF08F01D7
:101DC000041B150B74010E94D20BDF91CF911F9160
:101DD0000F91FF90EF90DF90CF90BF90AF909F90CA
:101DE0008F900895EF92FF920F931F93CF93DF93FD
:101DF000EC0177FD22C08885998568177907ECF496
:101E000057FD1BC08A859B8548175907B4F4790193
:101E1000E881F98102A4F3A5E02D01E010E021E0C2
:101E200030E0CE010995B701CE01DF91CF911F912E
:101E30000F91FF90EF900C94760ADF91CF911F9154
:101E40000F91FF90EF9008950895FC0187A987FDF9
:101E500006C0A38DB48D9C9181A9892B8C93089584
:101E60008CBD9DBD08952F923F924F925F926F92CD
:101E70007F928F929F92AF92BF92CF92DF92EF921A
:101E8000FF920F931F93CF93DF9380912F018823AD
:101E900009F4A8C00E94E0062B013C0180913901A1
:101EA00090913A01A0913B01B0913C01A3019201B4
:101EB000281B390B4A0B5B0BDA01C9010397A105FB
:101EC000B10508F48FC080913D0190913E01892BAE
:101ED00009F488C081E591E00E94300F60E08091B4
:101EE00030010E940C0581EB8EBD00000DB407FE91
:101EF000FDCF8EB581EC90E00E94CE08EC0163E04E
:101F0000D695C7956A95E1F7C150D04F81E990E029
:101F10000E94CE0873E0969587957A95E1F7C81BE5
:101F2000D90BC03931E0D3070CF448C081E990E007
:101F30000E94CE0881ED90E00E94CE086C0123E063
:101F4000D694C7942A95E1F781E990E00E94CE08E3
:101F50007C0133E0F694E7943A95E1F781ED90E067
:101F60000E94CE085C0143E0B694A7944A95E1F73D
:101F700081E990E00E94CE084C0153E0969487944A
:101F80005A95E1F780ED90E00E94CE088C0190E038
:101F900080E00E94CE081C0161E0809130010E9427
:101FA0000C05D7FF14C010923801109237018091B0
:101FB00031018F3FB9F010922F0114C0912C812C68
:101FC000B12CA12CF12CE12CD12CC12CDBCFC039B0
:101FD00041E0D407D4F41092380110923701CB3489
:101FE000D1052CF3DF91CF911F910F91FF90EF90CE
:101FF000DF90CF90BF90AF909F908F907F906F9029
:102000005F904F903F902F900895D0933801C093E8
:102010003701A80183E0569547958A95E1F7B50108
:10202000C6010E949C08EC01A10193E056954795DA
:102030009A95E1F7B401C7010E949C0840923901CA
:1020400050923A0160923B0170923C012091320122
:10205000213001F190F0223031F12FEF3FE0A90162
:102060004C1B5D0B5093340140933301281B390BFB
:102070003093360120933501B5CF2FEF3FE0281B79
:10208000390B3093340120933301D0933601C09340
:102090003501A8CFD0933401C0933301909336011A
:1020A000809335019FCF90933401809333018FEF5C
:1020B0009FE08C1B9D0BF2CFFC0125A9211104C0D0
:1020C00081A192A10C94300F08950F931F93CF9389
:1020D000DF931F92CDB7DEB78C016370DC0156969B
:1020E0006C935697623009F468C0633009F46AC093
:1020F000613009F456C088E4898380EF90E0199636
:102100009C938E93189780E491E01B969C938E93FA
:102110001A97C8010E945C10D801D7968C91D79766
:1021200087FD09C05B96ED91FC915C978081D2960A
:102130009C9189238083D8015D96ED91FC915E97F7
:102140008081D4969C918923808366E3C8010E9494
:10215000BB0AD8015D96ED91FC915E978081D39684
:102160009C91D397892B8083D5968C91823061F195
:102170006981C8010E94BB0AD801D7968C91D79774
:1021800087FD09C05B96ED91FC915C978081D196AB
:102190009C91892B80830F90DF91CF911F910F919C
:1021A000089588E2898380E491E0F801918780872F
:1021B00080EF90E093878287ACCF88E8898380EFB7
:1021C00090E09DCF88EEEECFF80180A9882381F2C0
:1021D00069817A81C8010E94760ACECFAF92BF9200
:1021E000CF92DF92EF92FF920F931F93CF93DF93E3
:1021F000EC01E62E8A01A22E0E945C108FA987FDB9
:1022000006C0EB8DFC8D80819AA989238083ED8D9A
:10221000FE8D80819CA9892380836E2DCE010E9432
:10222000BB0AED8DFE8D80819BA9892B8083D12CEB
:10223000C12CB12CCA14DB04E4F48DA978018230DE
:1022400079F488A9882361F0F801619171917F0187
:10225000CE010E94760AFFEFCF1ADF0A8701EACF8C
:10226000FFEFEF1AFF0AF8016491CE010E94BB0A4A
:10227000F2CF8FA987FD06C0EB8DFC8D808199A9D7
:10228000892B8083DF91CF911F910F91FF90EF9069
:10229000DF90CF90BF90AF900895611106C060E2CB
:1022A00020E050E040E00C94EE1061E2F9CFCF93D3
:1022B000DF93EC010E945C108FA987FD06C0EB8DB7
:1022C000FC8D80819AA989238083DF91CF91089525
:1022D0000895FC016370668B848195812681378126
:1022E000613039F0633029F0918780873387228706
:1022F0000895318720879387828708952F923F9290
:102300004F925F926F927F928F929F92AF92BF9205
:10231000CF92DF92EF92FF920F931F93CF93DF93B1
:10232000CDB7DEB76A970FB6F894DEBF0FBECDBF4C
:102330009A8F898F7A8369834A01D22E18870F83F7
:102340003701BC2CDC0159962D913C915A972115EF
:10235000310509F015C118968D919C911997681750
:1023600079070CF0D7C11A968D919C91481759079F
:102370000CF0D0C14C2C512CB6E0CB9E600D711DE1
:1023800011247C876B87161617060CF0C3C1EA2D43
:10239000F0E0FA87E98793E0EE0FFF1F9A95E1F7E7
:1023A000F88BEF87CF01840F951F181619060CF0D4
:1023B000B1C1A98DBA8D58968C91811104C0BFEA24
:1023C000BD1508F4D394A98DBA8DED91FC911197A8
:1023D0000284F385E02DCD010995B5E0DB9EC001B7
:1023E0001124E981FA81FC83EB83312C212C9C019F
:1023F000245A3E4F388F2F8B4A2D50E05E8B4D8BE9
:10240000EF89F88DE20DF31D44919E828D82D12CCF
:10241000C12C69817A81620D731D7A8B698B842F3F
:1024200090E09C8B8B8BE98DFA8DA081B18140FF70
:1024300082C0F1E0BF126FC0AF126DC01C96ED916B
:10244000FC912F813885A4014C0D5D1D69897A8925
:10245000898D9A8D0995EB89FC89F595E7954E2F25
:102460005FEFC51AD50A6D817E818D899E89680FBF
:10247000791F7E836D8398E0C916D10481F6AFEF92
:102480002A1A3A0AEB81FC81E40DF51DFC83EB83EB
:10249000F5E02F16310409F0B3CF2F8138852615CA
:1024A0003705B9F0A98DBA8DED91FC91B1E0BB1261
:1024B00057C0AB1255C069817A816B5F7F4F00882E
:1024C000F189E02D830128E030E0A401898D9A8D07
:1024D0000995A98DBA8DED91FC9111970688F78920
:1024E000E02DCD016A960FB6F894DEBF0FBECDBFCA
:1024F000DF91CF911F910F91FF90EF90DF90CF90E0
:10250000BF90AF909F908F907F906F905F904F9013
:102510003F902F9009941E96ED91FC91EF80F884E6
:1025200009851A8592014D815E816B817C81898D3F
:102530009A8D099590CF2F8138852615370509F496
:102540008ACF31E0B31207C0A31205C01C96ED91EB
:10255000FC91930178CF1E96ED91FC917301E0CF31
:102560006B857C85641975090684F785E02D7301F8
:102570000F8518899201A401898D9A8D0995A9CF9B
:10258000F90134969491329745915491D91AB7E054
:10259000DB9E400D511D1124F901259134913C8B96
:1025A0002B8BFA0125903490FA0132967490319673
:1025B0003491398B329664903196449041E04C15B9
:1025C00018F04A1508F07FC0662D062C000C770B1A
:1025D0007C836B83842D042C000C990B9E838D834C
:1025E000A98DBA8DED91FC9111970284F385E02DB0
:1025F000CD010995512CD12CC12CEA2DF0E0FA87A0
:10260000E9872B2D30E03C872B87A401440D511D19
:1026100047FC5A95588F4F8B69817A81660D711DE1
:1026200067FC7A957E876D877989C71608F051CF48
:102630002C2D30E04D815E81420F531FA985BA8554
:102640004A9FC0014B9F900D5A9F900D1124FC0191
:10265000E80DF91DF88BEF87852D612C4F89588D7A
:10266000420F531F5E8B4D8B671408F050C04424FB
:102670004394480E877041F4C1010196EB89FC89AF
:10268000E20DF31DD4901C01D7FE19C0A98DBA8D9F
:10269000ED91FC91662D70E0B1E0BB1219C0AB1258
:1026A00017C02D853E85620F731F0484F585E02DCC
:1026B0002F8138854D895E89898D9A8D0995DD0C2C
:1026C0006394842DD1CF1E821D821C821B8288CFF1
:1026D0004B815C81640F751FAB85BC856A9FC0010F
:1026E0006B9F900D7A9F900D112469817A81680FFC
:1026F000791F0684F785E02DEF80F88409851A8517
:102700009D014F855889898D9A8D0995D8CF570C91
:10271000C3948ACF6A960FB6F894DEBF0FBECDBFC2
:10272000DF91CF911F910F91FF90EF90DF90CF90AD
:10273000BF90AF909F908F907F906F905F904F90E1
:102740003F902F9008958F929F92AF92CF92EF92E9
:10275000FF920F931F93CF93DF93EC01262F898D68
:102760009A8D009709F051C06A30D1F41D861C86FD
:102770008D8948E0849F900111248E859F85820F6A
:10278000931F9F878E8781E090E0DF91CF911F910B
:102790000F91FF90EF90CF90AF909F908F90089502
:1027A0006D3089F3CC88AD888F898823C1F08C8502
:1027B0009D8536E0C39E800D911D11244885598565
:1027C0004817590764F44E855F851D861C8638E0DE
:1027D000A39EC0011124840F951F9F878E87EA88CE
:1027E000FB88088919894E855F856C857D85CE01BA
:1027F0000E947E112C898C859D8546E0249F800D4A
:10280000911D11249D878C87BECF6A3069F41D8687
:102810001C86FC013896E4912D898E859F85E29F68
:10282000800D911D1124ADCF6D3009F4ACCFFC01AA
:1028300034963491631708F4A6CF3296E491E617E4
:1028400008F4A1CFFC01329685909490462F431B4B
:10285000342F47E0349F800C911C1124F4013296F0
:1028600034913196E4913323A9F1EE2399F1CC8888
:10287000F4013596E491AD884F89442301F10E2E81
:10288000000CFF0BE30FF11DCE9EA001CF9E500D5B
:1028900011246C857D85460F571F688579856417DF
:1028A00075076CF44E855F851D861C86FC01389685
:1028B000E491AE9E400D511D11245F874E87EA883A
:1028C000FB88088919894E855F856C857D85CE01D9
:1028D0000E947E11F4013496E4912C898C859D85AB
:1028E000E29F800D911D11248DCF6F927F928F9268
:1028F0009F92AF92BF92CF92DF92EF92FF920F938F
:102900001F93CF93DF93EC016B015A01390148010A
:10291000E881F9810284F385E02D0995E881F98148
:102920000288F389E02D87019301A501B601CE014C
:102930000995A501480D591D41505109E881F981BA
:102940000288F389E02D9301B601CE010995E88153
:10295000F9810088F189E02D9401A501B601CE012D
:102960000995C60CD71CB60161507109E881F9813F
:102970000088F189E02D9401A501CE010995E88137
:10298000F9810688F789E02DCE01DF91CF911F9163
:102990000F91FF90EF90DF90CF90BF90AF909F90FE
:1029A0008F907F906F9009946F927F928F929F92F9
:1029B000AF92BF92CF92DF92EF92FF920F931F934D
:1029C000CF93DF935C01EB016A0149013801870174
:1029D000DC01ED91FC916217730719F56416750619
:1029E0002CF0962D872D3A01C92ED82E9601261946
:1029F00037092F5F3F4F048CF58DE02DA301BE01F9
:102A0000C5010995DF91CF911F910F91FF90EF9034
:102A1000DF90CF90BF90AF909F908F907F906F90FE
:102A200008954615570591F42617370724F0892D88
:102A30004B01C22FD82F9E01281939092F5F3F4F14
:102A4000068CF78DE02DA601B401DACF0284F38560
:102A5000E02D0995D501ED91FC910488F589E02DD3
:102A600083019401A601BE01C5010995D501ED912F
:102A7000FC910688F789E02DC501DF91CF911F9168
:102A80000F91FF90EF90DF90CF90BF90AF909F900D
:102A90008F907F906F900994EF92FF920F931F9306
:102AA000DC011A960D911C911B9718962D913C9163
:102AB0001997ED91FC9100A0F1A1E02D7B0150E070
:102AC00040E070E060E009951F910F91FF90EF905A
:102AD00008954F925F926F927F928F929F92AF92E2
:102AE000BF92CF92DF92EF92FF920F931F93CF93FB
:102AF000DF936C012B015A0139014801DC01ED9192
:102B0000FC910284F385E02D0995E201640C751CAB
:102B1000D601ED91FC91C615D7055CF40088F189CA
:102B2000E02D87019401A501BE01C60109952196FA
:102B3000EFCF0688F789E02DC601DF91CF911F9175
:102B40000F91FF90EF90DF90CF90BF90AF909F904C
:102B50008F907F906F905F904F9009948F929F928B
:102B6000AF92BF92CF92DF92EF92FF920F931F939B
:102B7000CF93DF93EC015B014A016901E881F981A0
:102B80000284F385E02D099595012C0D3D1D215002
:102B90003109E881F9810488F589E02D7801840103
:102BA000A401B501CE010995E881F9810688F7896C
:102BB000E02DCE01DF91CF911F910F91FF90EF900B
:102BC000DF90CF90BF90AF909F908F9009948F929D
:102BD0009F92AF92BF92CF92DF92EF92FF920F93AC
:102BE0001F93CF93DF93EC015B014A0169017801E8
:102BF000E881F9810284F385E02D0995C80CD91C80
:102C0000860101501109E881F9810488F589E02DD8
:102C10009501A401B501CE010995E881F9810688E5
:102C2000F789E02DCE01DF91CF911F910F91FF9099
:102C3000EF90DF90CF90BF90AF909F908F900994CE
:102C4000EF92FF920F931F93DC01ED91FC9100A096
:102C5000F1A1E02D09951F910F91FF90EF9008953C
:102C60000F931F93DC01ED91FC91068CF78DE02D05
:102C700009951F910F9108950F931F93DC01ED911A
:102C8000FC91048CF58DE02D09951F910F9108950D
:102C9000DC01ED91FC910084F185E02D09942F92E7
:102CA0003F924F925F926F927F928F929F92AF92DC
:102CB000BF92CF92DF92EF92FF920F931F93CF9329
:102CC000DF9300D000D000D0CDB7DEB73C016A0161
:102CD0003E832D83FC82EB825801A41AB50AB7FE0D
:102CE00003C0B194A194B1088D809E80861A970A82
:102CF00097FE03C09194819491088A149B045CF020
:102D0000902F812F0D811E819D838E839C2D8D2D73
:102D10006B01692F782F0C151D055CF09D818E814C
:102D20007E836D83692F782F902F812F8601C92E86
:102D3000D82E1601201A310A2B012D813E81421A0C
:102D4000530A57FE03C0519441945108710137FE54
:102D500003C03FEFE31AF30AF594E7948D819E8157
:102D6000861797075CF5A1E0B0E0BA83A983C01687
:102D7000D1064CF1D301ED91FC910484F585E02D51
:102D80002B813C81A8016D817E818A149B041CF0FB
:102D90004D815E81B801C3010995E418F508F7FE7D
:102DA0000AC02D813E8189819A81280F391F3E8377
:102DB0002D83E20CF31C0F5F1F4FD9CF2FEF3FEF96
:102DC0003A832983D4CF26960FB6F894DEBF0FBE80
:102DD000CDBFDF91CF911F910F91FF90EF90DF90CA
:102DE000CF90BF90AF909F908F907F906F905F90AB
:102DF0004F903F902F900895089590E080E00895BF
:102E0000CF93CFB7F8948091B202811127C0ECE83C
:102E1000F8E08491E5E6F8E09491E82FF0E0EE0F19
:102E2000FF1FEC5CF74FA591B491EC91E92321F4DD
:102E300061E08AE00E940C0561E08AE00E94A20540
:102E40008CB580618CBD8CB580648CBD61E08DE0FB
:102E50000E94A20561E08BE00E94A2058091B2026F
:102E60008F5F8093B202CFBFCF9108956091AE0281
:102E70007091AF028091B0029091B1029B01AC01C0
:102E80000E94F0392091AA023091AB024091AC022D
:102E90005091AD020E94103C20E030E040E859E340
:102EA0000E94103C6093A6027093A7028093A80230
:102EB0009093A9020895EF92FF920F931F93CF93DF
:102EC000DF937C018B01842FE9010E94AA04F09218
:102ED000D906E092D806D093DB06C093DA06E80163
:102EE000FE016491662339F08CEC96E00E94A313F6
:102EF0002196892BA9F7DF91CF911F910F91FF9018
:102F0000EF900895BF92CF92DF92EF92FF920F93CE
:102F10001F93CF93DF93EC01B88C8B2D0E94640636
:102F200000EF10E0C12CD12C76018B2D0E9464069D
:102F3000092E000CAA0BBB0BC80ED91EEA1EFB1EE5
:102F40000150110991F7C701B60122E096958795C6
:102F5000779567952A95D1F70E94093B20E030E0EC
:102F600040E751E40E94613A6B017C01C886D98632
:102F7000EA86FB8620E030E040E859E36091AE024B
:102F80007091AF028091B0029091B1020E94103C0A
:102F9000A70196010E94103C6C877D878E879F87D2
:102FA0002C813D814E815F810E94103C2C893D899E
:102FB0004E895F890E94103C288139814A815B815A
:102FC0000E94F039688B798B8A8B9B8BDF91CF9134
:102FD0001F910F91FF90EF90DF90CF90BF900895D9
:102FE000FC01A081B1814A175B079CF083818A0FA5
:102FF0009B2F911D8417950764F0228130E06217A2
:1030000073073CF08481280F311D81E026173707B4
:103010000CF480E008958F929F92AF92BF92CF926E
:10302000DF92EF92FF92CF937B01BC01990F880B47
:10303000990B0E940B3B2CEE31E548EB5DEB0E94B7
:10304000103C209118013091190140911A015091C2
:103050001B010E94F0394B015C0120E030E0A90126
:103060000E94BB3B20E030E040E05FE387FD5EC0B4
:10307000C501B4010E94F0390E94D33AC62FB72E81
:10308000B701FF0C880B990B0E940B3B2FE832EC29
:1030900045E75DEB0E94103C209114013091150131
:1030A00040911601509117010E94F0396B017C018B
:1030B00020E030E0A9010E94BB3B20E030E040E08E
:1030C0005FE387FD38C0C701B6010E94F0390E9456
:1030D000D33A562F472F2C2F3B2D37FF02C030E01D
:1030E00020E08091D4069091D506281739071CF06E
:1030F0009C0121503109E52FF42FF7FF02C0F0E0C9
:10310000E0E04091D6065091D706E417F50714F099
:10311000FA013197B901CF01CF91FF90EF90DF9085
:10312000CF90BF90AF909F908F900895C501B4014C
:103130000E94EF39A1CFC701B6010E94EF39C7CF76
:10314000FC0101900020E9F73197AF01481B590BB2
:10315000BC018CEC96E00C946F088F929F92AF921A
:10316000BF920F931F93CF93DF93CDB7DEB7A19795
:103170000FB6F894DEBF0FBECDBF19A2423008F4DF
:103180004AE08E010F5D1F4F842E912CB12CA12C93
:10319000A50194010E94CB3CE62FB901CA01EA3097
:1031A000F4F4E05DD801EE938D01232B242B252B25
:1031B00079F790E080E0109719F0CD010E94A018F7
:1031C000A1960FB6F894DEBF0FBECDBFDF91CF91B1
:1031D0001F910F91BF90AF909F908F900895E95CE1
:1031E000E1CFCF92DF92EF92FF92CF93DF93EC018A
:1031F0006B017A0181E00E94AA04D093D906C093A2
:10320000D806F092DB06E092DA060D2C000CEE08F0
:10321000FF084AE0C701B601F7FE0DC06DE28CEC75
:1032200096E00E94A31366277727CB016C197D09CE
:103230008E099F094AE0DF91CF91FF90EF90DF90D8
:10324000CF900C94AD18009711F00C94A01890E05A
:1032500080E00895EF92FF920F931F93CF93DF9337
:10326000EC01ED80FE800C8110E02B8130E04A8182
:1032700050E0688179818CEC96E00E94150D8A817E
:1032800090E005960CEC16E0288139812B5F3F4FCA
:10329000F801358724879787868789850E94AA0445
:1032A0008F819885F801938B828B918B808B8A8597
:1032B0009B85DF91CF911F910F91FF90EF900C9420
:1032C00023190F931F93CF93DF93EFE1F5E080EA8B
:1032D00090E095A384A384EB86A3DCE8D7A38DE2DA
:1032E00080A78EE991E097A786A780E098EF92A744
:1032F00081A70FEF1FEF14A703A7C2E0C5A783E4C0
:1033000095E00E942A192DEC30E042E050E064E59F
:1033100071E080EA90E00E945B171092D405109251
:10332000D30588EC8093D505D093D60589E18093A9
:10333000D70589EA91E09093DE058093DD0580EE64
:1033400097E09093D9058093D8051093DB050093FF
:10335000DA05C093DC0583ED95E0DF91CF911F91F5
:103360000F910C942A19CF92DF92EF92FF920F9354
:103370001F93CF93DF93CFE1D5E019AA18AA88EC69
:10338000C82ECAAA9CE8D92EDBAA0EE10CAB81E5B7
:1033900091E09BAF8AAF8FE190E09EAB8DABEE24C6
:1033A000EA94FE2CF8AEEFAA12E019AF8FE495E094
:1033B0000E942A1980EA90E09093A4058093A305C7
:1033C000C092A505D092A6050093A70581EB91E0D8
:1033D0009093AE058093AD0580E098EF9093A9059A
:1033E0008093A805F092AB05E092AA051093AC0576
:1033F00083EA95E00E942A191DAE1CAE86E98EAFC5
:10340000DFAE00935F058CEB91E0909366058093AF
:10341000650580EE9FEF90936105809360051092A3
:10342000630510926205109364058BE595E00E9498
:103430002A19ECECF6E0F18AE08A138A128A148BDE
:10344000158B30E020E043E050E06BE471E090E069
:1034500080E00E945B172EE130E042E050E063E440
:1034600071E090E080E00E945B172EE130E042E0E6
:1034700050E061E471E087E890E00E945B1722E38E
:1034800030E042E050E06FE371E087E890E00E94B6
:103490005B1730E020E043E050E069E371E080EA50
:1034A00090E00E945B172EE130E042E050E063E3E1
:1034B00071E080EA90E00E945B172EE130E042E08C
:1034C00050E061E371E08EE091E00E945B1722E33F
:1034D00030E042E050E06CE271E080EA90E00E946F
:1034E0005B1722E330E042E050E06AE271E08EE0F8
:1034F00091E00E945B1720E530E041E050E065E29A
:1035000071E080EA90E00E945B1720E530E041E046
:1035100050E061E271E080EF90E0DF91CF911F9188
:103520000F91FF90EF90DF90CF900C945B179F92DC
:10353000AF92BF92CF92DF92EF92FF920F931F93C1
:10354000CF93DF9370E060E08CEC96E00E944C1526
:10355000ECECF6E08FEF97E0938B828B918B808B76
:1035600030E020E044E050E067E171E082E390E089
:103570000E945B172DE730E043E050E064E171E02A
:1035800090E080E00E945B172EEB30E043E050E0DB
:1035900061E171E090E080E00E945B172CE330E095
:1035A00043E050E06EE071E090E080E00E945B1745
:1035B000CFE1D5E082E3A82EB12CB982A8828CE3BA
:1035C0008A8398EC992E9B8209E10C8387EC91E029
:1035D0009B878A8720EEC22E27E0D22EDE82CD8204
:1035E000EE24EA94FE2CF886EF8212E01987CE01D1
:1035F0000E942A19B98EA88E8DE78A8F9B8E0C8F18
:1036000080ED91E09BA38AA3DE8ECD8EF8A2EF8E93
:1036100019A387E395E00E942A19BDA2ACA28EEB04
:103620008EA39FA208A78EED91E09FA78EA7DAA692
:10363000C9A6FCA6EBA61DA783E495E0DF91CF9178
:103640001F910F91FF90EF90DF90CF90BF90AF90C0
:103650009F900C942A19EF92FF920F931F93CF9390
:10366000DF937C01EB01842F89010E94AA04ECEC1A
:10367000F6E0F586E48617870687CE01DF91CF91C5
:103680001F910F91FF90EF900C9423194F925F922E
:103690006F927F928F929F92AF92BF92CF92DF9262
:1036A000EF92FF920F931F93CF936B017C01742EC7
:1036B000AC019B010E947D3C882399F089EE91E04A
:1036C000CF911F910F91FF90EF90DF90CF90BF901F
:1036D000AF909F908F907F906F905F904F900C94E1
:1036E000A01846015701E894B7F82FEF3FEF4FE7D6
:1036F0005FE7C501B4010E947D3C81110DC02FEF31
:103700003FEF4FE75FE7C501B4010E945C3A18162E
:103710001CF48DEE91E0D4CF2FEF3FEF4FE75FE445
:10372000C701B6010E94BB3B18161CF481EF91E063
:10373000C7CF2FEF3FEF4FE75FECC701B6010E9405
:103740005C3A87FDF3CF20E030E0A901C701B60164
:103750000E945C3A10E000E087FF0AC06DE28CEC4A
:1037600096E00E94A3138C01F7FAF094F7F8F09416
:10377000C0E060E070E080E09FE37C1641F020E074
:1037800030E040E251E40E94613ACF5FF6CFA701FA
:1037900096010E94F0392B013C010E94DA3A4B015C
:1037A0005C014AE00E94AD187C01E00EF11ECC23C2
:1037B000C1F1C501B4010E94093B9B01AC01C301E9
:1037C000B2010E94EF394B015C016EE28CEC96E095
:1037D0000E94A313E80EF91EC15018F120E030E05A
:1037E00040E251E4C501B4010E94103C2B013C01B0
:1037F0000E94DA3A4B01B12CA12C4AE0C501B40178
:103800000E94AD18E80EF91EC501B4010E94093BE3
:103810009B01AC01C301B2010E94EF394B015C0175
:10382000DBCFC701CF911F910F91FF90EF90DF90F9
:10383000CF90BF90AF909F908F907F906F905F9050
:103840004F9008952F923F924F925F926F927F9286
:103850008F929F92AF92BF92CF92DF92EF92FF92A0
:103860000F931F93CF93DF9300D000D0CDB7DEB777
:103870003C017A8369835C834B83180129019E2C68
:10388000882DE98CFA8C0E94AA040CEC16E0F80151
:1038900075866486F786E68689819A810E94231957
:1038A0008B819C81F80195878487F786E686492D70
:1038B000C201B1010E94461BF801D586C486F78675
:1038C000E686C5010F900F900F900F90DF91CF917A
:1038D0001F910F91FF90EF90DF90CF90BF90AF902E
:1038E0009F908F907F906F905F904F903F902F9020
:1038F0000C9423198F929F92AF92BF92EF92FF92F6
:103900000F931F93CF93DF93EC014A015B01122FBA
:10391000802F0E94AA04ECECF6E0D587C487F786D6
:10392000E686412FC501B401DF91CF911F910F9120
:10393000FF90EF90BF90AF909F908F900C94461B9C
:10394000CF92DF92EF92FF920F931F93CF93DF936B
:10395000EB017B0124E0E20EF11C8B016C01C61A25
:10396000D70AC601800F911F0E94D939F8018193AF
:103970008F01EE15FF05A9F7CE01DF91CF911F91C1
:103980000F91FF90EF90DF90CF9008950E944A3EF4
:10399000CF92DF92EF92FF920F931F93CF93DF931B
:1039A000EC016A017B01C114D104E104F10431F49A
:1039B000C12C22E1D22E2AE7E22EF12C8FA987FD1D
:1039C00007C061E00E94A20561E08FA90E940C057A
:1039D00061E088AD0E94A20561E088AD0E940C05FF
:1039E0008DA9811172C040E052E16AE770E0C4160F
:1039F000D506E606F70640F4769567955795479500
:103A00008F5F8630A1F787E0982F906A969599A3EB
:103A1000809581708AA31BA21CA21DA21EA20E94D7
:103A200000178EA987FD21C061E00E94A20561E018
:103A30008EA90E940C0564E670E080E090E00E9490
:103A4000AE0660E08EA90E940C0564E670E080E09E
:103A500090E00E94AE0661E08EA90E940C0568EC21
:103A600070E080E090E00E94AE068EA987FF0DC056
:103A700020E050E040E061E0CE010E94EE1066E9F7
:103A800070E080E090E00E94AE060CE516E0C80110
:103A90000196F8016491662309F463C00E5F1F4F1D
:103AA000FC01F490EF2CE894E7F82E2DA801CE014C
:103AB0000E94EE100E0D111DF7FEE9CF66E970E0D1
:103AC00080E090E00E94AE06E2CF02E818E0F12C20
:103AD0008130B9F461E08AA50E94A20560E08AA560
:103AE0000E940C0561E08CA50E94A20560E08CA5F7
:103AF0000E940C058BA587FD94CF60E00E94A20573
:103B000090CFF8018491E82FF0E0EE0FFF1FEA5804
:103B1000F74F859194912F8D38A12817390741F4DB
:103B200061E08F2D0E94A20560E08F2D0E940C05A0
:103B3000F3940F5F1F4FFBE1FF12E3CF61E08EA50F
:103B40000E94A20561E08EA50E940C058FA587FD4D
:103B500068CF61E00E94A20561E08FA50E940C057C
:103B600060CF80EF90E09987888780E491E09B8721
:103B70008A87DF91CF911F910F91FF90EF90DF9097
:103B8000CF9008954F925F926F927F928F929F9203
:103B9000AF92BF92CF92DF92EF92FF920F931F935B
:103BA000CF93DF9300D000D01F92CDB7DEB7009146
:103BB00017060D83209102053091030540910405FD
:103BC0005091050529833A834B835C83002391F14F
:103BD00080912801909129018135910558F52FE0B8
:103BE000289FA001299F500D112470E060E00981F9
:103BF0001A812B813C810417150726073707D0F05F
:103C000040910D0350910E0360910F0370911003CA
:103C10009C012F5F3F4F3093290120932801880F8B
:103C2000991F880F991FFC01E254FC4F4083518378
:103C30006283738320E030E04AE754E4609120011E
:103C40007091210180912201909123010E94613A9B
:103C50004B015C018092AE029092AF02A092B00242
:103C6000B092B1028EE00E94640600EF10E0C12C19
:103C7000D12C76018EE00E946406092E000CAA0B5E
:103C8000BB0BC80ED91EEA1EFB1E0150110991F78D
:103C9000C701B60132E096958795779567953A9575
:103CA000D1F70E94093B20E030E040E751E40E9458
:103CB000613A6B017C01C092AA02D092AB02E09201
:103CC000AC02F092AD0220E030E040E859E3C501DB
:103CD000B4010E94103CA70196010E94103C9B0178
:103CE000AC010E94F0394B015C018092A2029092DB
:103CF000A302A092A402B092A5021D8111110AC0D4
:103D000080911705811106C080911605811102C0AE
:103D10000E94361783EB96E00E9482178AE996E0AC
:103D20000E9482174090C3065090C4066090C5065A
:103D30007090C6062091AA063091AB064091AC0661
:103D40005091AD06C301B2010E94F0396B017C01B4
:103D500020E030E040EA50E40E94BB3B87FDAAC26D
:103D600082E38093160680911606813309F0B9C26A
:103D700040920D0350920E0360920F037092100355
:103D80000D81011109C080911705811105C0809135
:103D90001605882309F4C4C22091A6023091A70217
:103DA0004091A8025091A902C501B4010E94EF39C7
:103DB00020911C0130911D0140911E0150911F0165
:103DC0000E94613A20911A05222309F496C220919B
:103DD0000C0130910D0140910E0150910F010E9494
:103DE000103C209101033091020340910303509154
:103DF00004030E94F0396B017C0120E030E0A9014E
:103E00000E94BB3B181624F0F7FAF094F7F8F094F0
:103E1000C0922E03D0922F03E0923003F092310330
:103E2000809115038823F1F080919E0290919F026A
:103E3000A091A002B091A102892B8A2B8B2B91F02B
:103E400080910D0390910E03A0910F03B091100388
:103E50008093BE039093BF03A093C003B093C103AC
:103E60001092150381E10E946406BC0190E080E09D
:103E70000E94093B9B01AC0160E070E080E894E4A3
:103E80000E94613A20E030E040E85FE30E94EF39B1
:103E900020E030E44CE156E40E94103C0E94C83B14
:103EA0006B017C012AED3BE54FE354E30E94103C9B
:103EB000A70196010E94103CA70196010E94103CA8
:103EC0004B015C0120EF30E845E859E3C701B6013A
:103ED0000E94103C21E23DEE43E65AE30E94F03995
:103EE0009B01AC01C501B4010E94F0399B01AC01FA
:103EF00060E070E080E89FE30E94613A23E333E9E9
:103F000048E853E40E94EF3920E030E040E250E41A
:103F10000E94EF396093110370931203809313038F
:103F20009093140320E030E040E151E40E94103C03
:103F300020E030E040EA50E40E94613A20E030E0C6
:103F400040E052E40E94F0396093090370930A0341
:103F500080930B0390930C03C0901603D09017032B
:103F6000E0901803F09019031D81112391F10E9434
:103F7000E00600911A0310911B0320911C0330915D
:103F80001D03601B710B820B930B28EE822E23E026
:103F9000922EA12CB12CA50194010E94CB3C209320
:103FA0009E0230939F024093A0025093A1020E9470
:103FB000E0066C197D098E099F09A50194010E94F4
:103FC000CB3C20939A0230939B0240939C025093E7
:103FD0009D0280919E0290919F02A091A002B091BB
:103FE000A10229813A814B815C81281739074A0750
:103FF0005B0708F09EC18093020590930305A09390
:104000000405B093050560912C0370912D038B017D
:104010000F5F1F4F90E080E00E94093B2091120546
:104020003091130540911405509115050E94103CE4
:1040300020910D0330910E0340910F035091100316
:104040000E94F0394B015C01B80190E080E00E94D1
:10405000093B9B01AC01C501B4010E94613A609328
:104060001205709313058093140590931505109312
:104070002D0300932C0380909A0290909B02A090B5
:104080009C02B0909D02C814D904EA04FB0451F1CB
:1040900026E636E646E650E460912E0370912F0343
:1040A00080913003909131030E94613A9B01AC01F1
:1040B000609128037091290380912A0390912B032A
:1040C0000E94F039609328037093290380932A0398
:1040D00090932B038092160390921703A0921803DB
:1040E000B0921903C0902803D0902903E0902A03CE
:1040F000F0902B0320912403309125034091260357
:1041000050912703C701B6010E94BB3B181644F427
:10411000C0922403D0922503E0922603F092270355
:10412000809123038823D1F020E030E040E051E487
:1041300060910D0370910E0380910F039091100315
:104140000E945C3A181654F0809102059091030584
:104150009093110580931005109223038091220300
:104160008823D1F02DEC3CEC4CEF50E460910D0332
:1041700070910E0380910F03909110030E945C3A9E
:10418000181654F0809102059091030590930F0545
:1041900080930E0510922203809121038823D1F091
:1041A0002AE939E949EF50E460910D0370910E035B
:1041B00080910F03909110030E945C3A181654F0FE
:1041C000809102059091030590930D0580930C0555
:1041D00010922103809120038823D1F020E030E069
:1041E00040E850E460910D0370910E0380910F033D
:1041F000909110030E945C3A181654F080910205C9
:104200009091030590930B0580930A05109220036B
:1042100080911F038823D1F02DEC3CEC4CE750E457
:1042200060910D0370910E0380910F039091100324
:104230000E945C3A181654F0809102059091030593
:10424000909309058093080510921F0380911E0327
:104250008823D1F02AE939E949E750E460910D0358
:1042600070910E0380910F03909110030E945C3AAD
:10427000181654F08091020590910305909307055C
:104280008093060510921E030F900F900F900F90D1
:104290000F90DF91CF911F910F91FF90EF90DF90E2
:1042A000CF90BF90AF909F908F907F906F905F90D6
:1042B0004F90089520E030E040EA50E4C701B60195
:1042C0000E945C3A87FF4FCD20E030E040E05FE3A2
:1042D000C701B6010E94BB3B18160CF044CD81E328
:1042E00040CD823309F04CCDC0920D03D0920E0325
:1042F000E0920F03F092100343CD20911001309112
:10430000110140911201509113010E94103C209123
:10431000050330910603409107035091080369CDCE
:1043200010922E0310922F0310923003109231033B
:1043300077CD0D8101119FCE10929E0210929F02A7
:104340001092A0021092A10296CE1F920F920FB669
:104350000F9211242F933F938F939F93AF93BF930B
:104360008091190690911A06A0911B06B0911C0627
:104370003091180623E0230F2D3768F126E8230F2C
:104380000296A11DB11D20931806809319069093E3
:104390001A06A0931B06B0931C0680911D069091EF
:1043A0001E06A0911F06B09120060196A11DB11D09
:1043B00080931D0690931E06A0931F06B0932006BF
:1043C000BF91AF919F918F913F912F910F900FBE11
:1043D0000F901F9018950196A11DB11DD4CF1F926B
:1043E0000F920FB60F9211242F933F934F935F9329
:1043F0006F937F938F939F93AF93BF93EF93FF93AD
:10440000E0910A01F0910B010995FF91EF91BF91A5
:10441000AF919F918F917F916F915F914F913F915C
:104420002F910F900FBE0F901F9018951F920F9213
:104430000FB60F9211242F933F934F935F936F9377
:104440007F938F939F93AF93BF93EF93FF93E091ED
:104450000801F09109010995FF91EF91BF91AF918A
:104460009F918F917F916F915F914F913F912F918C
:104470000F900FBE0F901F9018951F920F920FB6BE
:104480000F9211242F933F934F935F936F937F93DA
:104490008F939F93AF93BF93EF93FF938091B90056
:1044A000887F803609F44CC008F03FC0883209F498
:1044B000A8C018F5803109F49CC0B8F4882309F429
:1044C00005C1883009F495C0FF91EF91BF91AF917C
:1044D0009F918F917F916F915F914F913F912F911C
:1044E0000F900FBE0F901F901895883109F489C066
:1044F000803251F78093F60215C0803409F4A6C0CB
:1045000048F48033B9F38833F9F68093F6020E94B9
:10451000A404DACF803509F489C0883509F49EC037
:10452000883491F60E949A04CFCF883909F494C058
:1045300038F5883729F050F4883611F0803721F6A5
:1045400083E08093F7021092F50257C0883809F48F
:1045500083C0803919F0803809F0B6CF8091F50218
:10456000803208F079C0E091F50281E08E0F8093EF
:10457000F5028091BB00F0E0EB52FD4F80833DC01F
:10458000803B39F0E0F4803A09F485C0883A09F0BC
:104590009BCF84E08093F7021092D4021092D30252
:1045A000E0912306F091240609958091D3028111B0
:1045B0000FC081E08093D3021092B30209C0803C07
:1045C00009F482C0883C09F47FC0883B09F07CCFA5
:1045D000E091D40281E08E0F8093D402F0E0ED549C
:1045E000FD4F80818093BB009091D4028091D302D3
:1045F00031C08091FE028093BB0085EC8093BC00AB
:1046000063CF9091FD028091FC029817B8F58091DC
:10461000FA029091FB02E091FD0221E02E0F20931F
:10462000FD02E80FF92FF11D8081E5CF2091FA02FC
:104630003091FB02E091FD0281E08E0F8093FD023C
:104640008091BB00E20FF32FF11D80839091FD025A
:104650008091FC02981788F285E8D0CF2091FA0269
:104660003091FB02E091FD0281E08E0F8093FD020C
:104670008091BB00E20FF32FF11D80838091F9023E
:10468000811150CF81E08093F80284EA8093BC00CE
:104690001092F70219CF0E94A4048091F502803293
:1046A00030F4E091F502F0E0EB52FD4F10826091A2
:1046B000F50270E0E0912106F091220685ED92E08E
:1046C00009951092F50200CF85ECE0CF1092F6022A
:1046D00029CFFF920F931F93CF93DF93EC01F62E18
:1046E00008811981C8010E94D939F81621F06F2D6F
:1046F000C8010E94E139CE01DF91CF911F910F9146
:10470000FF900895AF92BF92CF92DF92EF92FF9207
:104710000F931F93CF93DF9300D0CDB7DEB78B01FC
:104720006B0124E0C20ED11C7B015C01A61AB70A02
:10473000C5018E0D9F1D9A838983F70161917F01C9
:10474000CE0101960E946923EC14FD0489F7C8018B
:104750000F900F90DF91CF911F910F91FF90EF90ED
:10476000DF90CF90BF90AF900895CF92DF92EF92FD
:10477000FF92CF93109228061092270688EE93E0BE
:10478000A0E0B0E08093290690932A06A0932B0620
:10479000B0932C0680E691E0909326068093250640
:1047A00080E290E090933206809331060E94253D8E
:1047B0009093340680933306109235061092360695
:1047C0001092370680E290E00E94253D90933906D2
:1047D0008093380610923A0610923B0610923C06DF
:1047E00087E795E0909342068093410685E995E03E
:1047F00090934406809343068BE794E0909346069B
:10480000809345068FE794E090934806809347068F
:1048100082E699E090934A068093490682E199E006
:1048200090934C0680934B068BEE98E090934E0647
:1048300080934D0682E994E09093500680934F0652
:104840008AE994E0909352068093510684EA94E0BA
:1048500090935406809353068EEA99E09093220633
:104860008093210682EA99E09093240680932306A0
:104870001092CF061092CE0620EF30E03093D10692
:104880002093D00680E491E09093D3068093D206E3
:104890003093D5062093D4069093D7068093D606FE
:1048A0001092E2061092D9061092D8061092DB06FA
:1048B0001092DA06C1E0C093E106C093E0068FEFE4
:1048C0009FEF9093DF068093DE069093DD06809342
:1048D000DC06C093E3061092E4061092E6061092FE
:1048E000E5061092010788E0809302078AE0809332
:1048F000030789E0809304071092060710920507CA
:1049000010920807109207071092090710920A07E1
:1049100010920B0710920C0710920D0710920E07C1
:1049200085E596E09093EC068093EB06EBE8F8E0E3
:10493000E491F0E0EE0FFF1FEA58F74F8591949154
:104940009093EA068093E906E4E6F8E08491809388
:10495000FF06ECE8F8E0E491F0E0EE0FFF1FEA5804
:10496000F74F259134913093E8062093E706E5E66A
:10497000F8E0E491E093FD06E095E093FE06E82F71
:10498000E095E093000782E791E09093CD06809355
:10499000CC0680E18093CB061092B3061092B40649
:1049A0001092B5061092B60643E353E363E97FE342
:1049B0004093B7065093B8066093B9067093BA0651
:1049C00080E090E0A0E8BFE38093C7069093C8061C
:1049D000A093C906B093CA062FE02093B2061092A6
:1049E0009A0610929B0610929C0610929D06409388
:1049F0009E0650939F066093A0067093A106809335
:104A0000AE069093AF06A093B006B093B106C090E7
:104A10004301D0904401E0904501F090460186E5C5
:104A200096E090937D0680937C068AE596E09093CD
:104A30007B0680937A068FE391E090937F068093C4
:104A40007E0610929806109290061092910610928F
:104A500092061092930680E090E0AFE7B3E4809373
:104A6000940690939506A0939606B093970684E6D5
:104A700090E0A0E0B0E080938C0690938D06A09328
:104A80008E06B0938F06109277061092760620E07D
:104A900030E0A901C701B6010E945C3A87FD44C01D
:104AA00081E090E09093790680937806C093990610
:104AB0008AE097EDA3E2BCE380935E0690935F06E5
:104AC000A0936006B0936106C0926206D09263061E
:104AD000E0926406F09265061092660610926706F0
:104AE000109268061092690680936A0690936B068E
:104AF000A0936C06B0936D062DEC3CEC4CEC5DE3A2
:104B0000C701B6010E94103C60936E0670936F0659
:104B1000809370069093710610927206109273063D
:104B200010927406109275060E94E006C0908C06E2
:104B3000D0908D06E0908E06F0908F066C197D095E
:104B40008E099F0960938006709381068093820688
:104B500090938306CF91FF90EF90DF90CF900895D0
:104B6000CF93DF93CDB7DEB72E970FB6F894DEBFA5
:104B70000FBECDBF789484B5836084BD85B5836056
:104B800085BD80916E00816080936E0082E080938D
:104B900081008091810081608093810080918000FC
:104BA0008160809380008091B10084608093B10027
:104BB0008091B00081608093B0008091910083600B
:104BC000809391008091900081608093900080910B
:104BD000A10083608093A1008091A00081608093F8
:104BE000A00087E880937A001092C10010922E01F5
:104BF00060E08091CB060E94A20560E08091B20641
:104C00000E94A20561E087E00E94A20561E087E0C2
:104C10000E940C0561E08AE00E94A20560E08EE03F
:104C20000E94A20560E081E10E94A20561E083E0AC
:104C30000E94A20561E08AE00E940C0540E050E07D
:104C4000BA018CEC96E00E94C81C61E08CEC96E006
:104C50000E94651070E060E08CEC96E00E944C15BC
:104C600085E596E090933E0180933D010E940017F8
:104C700061E0809130010E94A20561E080913001E5
:104C80000E940C05809131018F3FE9F060E00E94A5
:104C9000A20580913101823009F4B3C1833069F4F7
:104CA00087E698E090930B0180930A018091690058
:104CB000837F886080936900E99A8FE291E0909306
:104CC00000038093FF020E94C21D0E94361764E217
:104CD00071E090E080E00E94A01C60E271E084E05E
:104CE00090E00E94A01C63EB76E088E090E00E94D8
:104CF000A01C6AE976E08CE090E00E94A01C67EBC3
:104D000076E080E190E00E94A01C6EE976E084E10C
:104D100090E00E94A01C6CE171E088E190E00E94AC
:104D2000A01C65E073E08CE190E00E94A01C80E292
:104D300090E00E94D93980931D0581E290E00E94A5
:104D4000D93980931E056FE371E084E290E00E9400
:104D5000A01C6AE271E088E290E00E94A01C67EC6F
:104D600076E08CE290E00E94A01C6EEA76E080E3A0
:104D700090E00E94A01C68E171E084E390E00E9452
:104D8000A01C64E171E088E390E00E94A01C60E157
:104D900071E08CE390E00E94A01C61E073E080E48D
:104DA00090E00E94A01C6CE071E084E490E00E941E
:104DB000A01C88E490E00E94D93980931A052091C4
:104DC0001D0530911E054FE0429FC001439F900D8D
:104DD000112490931C0580931B0580912E039091C4
:104DE0002F03A0913003B091310380935A06909322
:104DF0005B06A0935C06B0935D06809198068111D6
:104E000002C00E94B20481E08093980670E060E0E6
:104E10008CEC96E00E944C1580EE97E09093DF06B4
:104E20008093DE069093DD068093DC0626E430E076
:104E300043E050E065EF71E08CE390E00E942B1BB3
:104E40002EE630E043E050E060E072E083E290E084
:104E50000E942B1B26E930E043E050E06FE072E057
:104E600087E390E00E942B1B68EE73E080E090E007
:104E70000E94AE0680E3809313060E94971A2224B4
:104E80002A94322C8EE00E946406833191402CF5E6
:104E900060E078EF8CEC96E00E944C1529E130E060
:104EA00046E050E06BE172E08AE090E00E942B1B4C
:104EB00029E630E046E050E064E272E08AE090E00B
:104EC0000E942B1B68EE73E080E090E00E94AE062B
:104ED00080E3809313060E94971A80911706811130
:104EE00039C0809117058111EFC08091160581119D
:104EF000EBC08EE00E9464068F3591400CF4E4C054
:104F000060E078EF8CEC96E00E944C1529E130E0EF
:104F100046E050E06DE272E08AE090E00E942B1BD8
:104F200029E630E046E050E066E372E08AE090E097
:104F30000E942B1B68EE73E080E090E00E94AE06BA
:104F400080E3809313060E94971A809117068823A6
:104F500009F4BAC010911606123309F0CAC0809045
:104F6000C3069090C406A090C506B090C60620E087
:104F700030E048EC52E460912A0170912B0180915D
:104F80002C0190912D010E94613A6B017C01AC01D2
:104F90009B01C501B4010E94BB3B18160CF03FC039
:104FA0002091AA063091AB064091AC065091AD0617
:104FB000C701B6010E945C3A87FF31C080912E0381
:104FC00090912F03A0913003B091310380935A0642
:104FD00090935B06A0935C06B0935D068091980663
:104FE00081110E94EC0660915606709157068091DF
:104FF0005806909159060E94D33ACB010E94D305DE
:105000003EC087E698E09093090180930801809163
:1050100069008C7F826080936900E89A4ECEA70178
:105020009601C501B4010E945C3A87FD1EC0209123
:10503000AA063091AB064091AC065091AD06C7016F
:10504000B6010E94BB3B181684F020E030E046EC2D
:1050500052E46091110370911203809113039091B7
:1050600014030E94BB3B181654F4109219051092B9
:10507000180590E080E00E94D305109217068091F9
:105080001B0590911C050097C9F0B0E0A0E040918D
:105090000205509103056091040570910505841780
:1050A0009507A607B70750F4109219051092180536
:1050B00090E080E00E94D30510921706113309F0AA
:1050C00044C081E08093150680911306833309F470
:1050D00096C50CF041C0803309F4D6C1813309F480
:1050E00090C380E090E0892B09F4CCCE0E940000B0
:1050F000C6CE113321F6C090C306D090C406E0900E
:10510000C506F090C60620E030E048EC52E460911D
:105110002A0170912B0180912C0190912D010E9408
:10512000613A4B015C01AC019B01C701B6010E94D1
:10513000BB3B18160CF442CFA5019401C701B60180
:105140000E945C3A87FD91CF9ACF123309F0BCCF11
:1051500081E080931406B8CF853311F40C94EA37BC
:1051600014F40C94F232863309F0BBCF0E94C21DB6
:105170001092DD061092DC063092DF062092DE06E9
:1051800025E030E042E050E065E178E088E290E040
:105190000E945B178FE198EF9093DD068093DC0609
:1051A0003092DF062092DE062EE130E041E050E052
:1051B0006AE078E082ED90E00E945B1700911205B2
:1051C0001091130520911405309115051F9286E466
:1051D0008F9388248394912C82E4A82E82E0B82EA9
:1051E00092E2C92EDD24D39443E0E42EF12C44E076
:1051F00051E066E872E08FEA90E00E94221C0F9076
:105200000F9080911406882311F40C94EE3828E254
:1052100030E041E050E06BEF77E08FEA90E00E94F1
:105220005B17609110057091110548E250E089E02C
:1052300091E00E94F11822E330E041E050E06CEE92
:1052400077E08FEA90E00E945B1760910E05709105
:105250000F0542E350E089E091E00E94F1182CE351
:1052600030E041E050E06DED77E08FEA90E00E94A1
:105270005B1760910C0570910D054CE350E089E0DF
:1052800091E00E94F1181092DD061092DC06309237
:10529000DF062092DE0621EE30E041E050E068EAD1
:1052A00077E08CE890E00E945B1721EE30E041E06F
:1052B00050E060EA77E081E090E00E945B17609147
:1052C00002057091030580910405909105050E94E7
:1052D000093BAB01BC01A1EEEA2EF12C01E010E08C
:1052E00030E020E082E390E00E947A1C21EE30E082
:1052F00041E050E06EE977E080E590E00E945B17C6
:1053000080911506882311F40C942C39EEEBAE2E07
:10531000E3E0BE2EF2E2CF2ED12CD5016D917D912E
:105320008D919D915D0120E030E048EC52E40E94B7
:10533000103C0E94DA3A6115710589F08B01025226
:10534000114042EF51E0461B570BE12C78EFF72E4E
:1053500027E030E0B6018CEC96E00E94150DB8E035
:10536000CB0ED11CEAE2CE16E1E0DE06B1F667E034
:10537000C62ED12C812C912C540120E030E048EC39
:1053800051E4C501B4010E94103C20E030E04CE241
:1053900052E40E94F0390E94D33A2B0120E030E021
:1053A00040E85EE3C501B4010E94103C9B01AC01E2
:1053B00060E070E080E990E40E94EF39AB01BC014D
:1053C000720101E010E022E030E081E090E00E9414
:1053D0007A1C20E030E040E85FE3C501B4010E94A0
:1053E000F0394B015C01F1E0CF1AD10831F655E2FA
:1053F000E52EF12C10E000E047ED50E0B801C701C8
:105400000E94F1180F5F1F4F20E2E20EF11C0930DD
:10541000110591F70E94330F809137019091380167
:10542000803991400CF45DCE0E94330F60913501BC
:105430007091360180913301909134010E940B18D4
:10544000AB01BC0140930F06509310066093110608
:10545000709312068BE595E00E94F017882309F4FB
:1054600040CE70E060E08CEC96E00E944C1585E345
:105470008093130670E060E08CEC96E00E944C157F
:105480000E94C21D0C94EE320E94330F80913701AE
:1054900090913801803991400CF423CE0E94330F53
:1054A0006091350170913601809133019091340102
:1054B0000E940B186B017C01C0920F06D09210065F
:1054C000E0921106F0921206BC01A60187E395E076
:1054D0000E94F017882371F083E3809313060E94E3
:1054E000C21D70E060E08CEC96E00E944C150E94BA
:1054F000B319F7CDB701A60183E495E00E94F01738
:10550000882381F184E38093130670E060E08CECE3
:1055100096E00E944C150E94C21D109250051092F8
:105520004F0588EC809351058CE88093520589E102
:105530008093530581E591E090935A058093590536
:105540008FE190E090935505809354053092570574
:105550002092560582E0809358058FE495E00E94E2
:105560002A19BFCDB701A6018FE195E00E94F0177F
:10557000882309F4B6CD81E38093130670E060E0E0
:105580008CEC96E00E944C1580E29DEF9093DF0634
:105590008093DE069093DD068093DC0624E130E004
:1055A00042E050E06FEE76E08BE490E00E945B1703
:1055B0002CE330E042E050E06FED76E08BE490E0E9
:1055C0000E945B1724E630E042E050E061ED76E0B7
:1055D0008BE490E00E945B172CE830E042E050E062
:1055E0006BEC76E08BE490E00E945B178AE590E03C
:1055F0009093500580934F0588EC809351058CE87B
:105600008093520599E1592E5092530581E591E01E
:1056100090935A05809359058FE190E0909355053A
:1056200080935405309257052092560522E0422E71
:10563000409258058FE495E00E942A190AE010E094
:1056400010936805009367053DE0F32EF09269051D
:1056500050926A0550926B054FE4842E41E0942EDF
:105660009092720580927105612C58EF752E7092A0
:105670006D0560926C0530926F0520926E05409228
:10568000700587E695E00E942A1968E2A62EB12CE3
:10569000B0927405A0927305F0927505509276054C
:1056A000509277057DE4C72E71E0D72ED0927E050B
:1056B000C0927D05E0EEEE2EE7E0FE2EF092790539
:1056C000E092780530927B0520927A0540927C0525
:1056D00083E795E00E942A191093E0050093DF0507
:1056E000E6E3E093E1055092E2055092E3059092E3
:1056F000EA058092E9057092E5056092E405309232
:10570000E7052092E6054092E8058FED95E00E94BE
:105710002A19B092EC05A092EB05F6E3F093ED05A3
:105720005092EE055092EF05D092F605C092F50525
:10573000F092F105E092F0053092F3052092F20527
:105740004092F4058BEE95E00E942A191093800593
:1057500000937F052FE5209381055092820550929A
:10576000830590928A0580928905709285056092E2
:1057700084053092870520928605409288058FE740
:1057800095E00E942A19B0928C05A0928B058FE5B6
:1057900080938D0550928E0550928F05D09296057C
:1057A000C0929505F0929105E09290053092930594
:1057B00020929205409294058BE895E00E942A1968
:1057C000109304060093030687E88093050687E399
:1057D000809306065092070686EC91E090930E06A1
:1057E00080930D0680EE9FEF909309068093080644
:1057F00030920B0620920A0640920C0683E096E057
:10580000AECE0E94C21D20911D0530911E054FE0B5
:10581000429FC001439F900D112490931C058093DB
:105820001B0580E29DEF9093DD068093DC061092CD
:10583000DF061092DE0600913F0110914001209199
:105840004101309142011F9284E18F93F2E08F2E4B
:10585000912CA6ECAA2EA1E0BA2EB0E4CB2EDD242A
:10586000D394F12CE12C44E051E06EE372E082E24B
:1058700091E00E94221C60911B0570911C0590E034
:1058800080E00E94093B8B019C011F928CE38F9367
:1058900044E051E060E472E08CE291E00E94221C5E
:1058A00020E030E048EC52E460912A0170912B0135
:1058B00080912C0190912D010E94613A8B019C01F5
:1058C0001F9284E68F9382E0E82EF12C4AEF50E09D
:1058D00062E472E08CE291E00E94221C0F900F9033
:1058E0000F900F900F900F9080911A052CE830E0E8
:1058F00042E050E06DE278E0811102C066E278E0BB
:1059000080EF90E00E945B170E94330F8091370177
:1059100090913801803991400CF4E3CB0E94330F11
:10592000609135017091360180913301909134017D
:105930000E940B186B017C01C0920F06D0921006DA
:10594000E0921106F0921206BC01A60183E795E0F1
:105950000E94F017882349F1C0903F01D090400188
:10596000E0904101F090420120E030E044E352E455
:10597000C701B6010E945C3A87FF10C020E030E00A
:1059800040E85FE3C701B6010E94F03960933F0130
:1059900070934001809341019093420164E670E06E
:1059A00080E090E00E94AE069CCBB701A60187E69E
:1059B00095E00E94F017882309F440C0C0903F0191
:1059C000D0904001E0904101F090420120E030E0B1
:1059D000A901C701B6010E94BB3B181684F420E060
:1059E00030E040E85FE3C701B6010E94EF39609301
:1059F0003F0170934001809341019093420120E068
:105A000030E040E251E460913F01709140018091AB
:105A10004101909142010E945C3A87FFBFCFF12C77
:105A2000E12C0FE010E02FE030E044E150E06EE0C8
:105A300071E08CEC96E00E94900CB0CFB701A6010B
:105A40008FED95E00E94F017882389F180911D0564
:105A500090911E05009729F0019790931E05809361
:105A60001D0580911D0590911E05079770F4F12C7E
:105A7000E12C0FE010E02FE030E04CE350E06AE171
:105A800071E08CEC96E00E94900C80911D05909145
:105A90001E05892B09F082CFF12CE12C0FE010E0DC
:105AA0002FE030E04CE350E06BE071E0C2CFB70193
:105AB000A6018BEE95E00E94F017882371F080918B
:105AC0001D0590911E058032910508F067CF019663
:105AD00090931E0580931D0561CFB701A6018BE849
